:0300000002129554
:0C129500787FE4F6D8FD7581680212DC59
:0D17CF0045433A006D532F636D00543A00FE
:10152600041000000000042800000000041400005D
:101536000000041C00000000040C3F800000044072
:101546003F80000004083F80000004203F80000028
:10155600042400000000041800000000122C000003
:101566000000000000000000000000000000000075
:0D17C100007F087E017DF3DDFEDEFCDFFA17
:0117CE0022F8
:100E69007F007E407D9C7C45AB13AA12A911A81076
:100E7900120AB3E4FBFA79807844120BBC8F2B8EEB
:100E89002A8D298C28E4FFFE7D7A7C44AB2BAA2A83
:100E9900A929A828120AB3E4FBFA794D7844120B60
:100EA900BCE4FBFA79487843120BBC8F278E268D58
:100EB900258C24AF43AE42AD41AC40AB27AA26A94D
:100EC90025A824120AB38F1B8E1A8D198C18E4FFDA
:100ED900FEFD7C40AB1BAA1AA919A818120C59606F
:100EE90010400E852343852242852141852040807B
:100EF90021E4FFFEFD7C40AB1BAA1AA919A8181210
:100F09000C596002500C850B43850A4285094185BD
:100F19000840AF43AE42AD41AC40AB27AA26A92554
:100F2900A824120AB38F178E168D158C14E4FBFAB8
:100F390079207841AF1FAE1EAD1DAC1C120BBC7BD6
:100F4900507A8D7997783C120AB37B9A7A99790904
:100F5900783F1209C28F0F8E0E8D0D8C0CAF17AE14
:100F690016AD15AC14AB0FAA0EA90DA80C120BBC2B
:100F79008F178E168D158C14E4FFFEFDFCAB17AA96
:100F890016A915A814120C5960025009E4F517F5B1
:100F990016F515F514E4FFFE7DA07C41AB17AA16E2
:100FA900A915A814120C59600D400BE4F517F51694
:100FB9007515A0751441E4FFFE7DC87C42AB17AAE4
:100FC90016A915A814120AB3120D10AB07AA067CAC
:100FD900037DE8120E25EF2430F52C7C037DE8AF64
:100FE90003AE02120E257E007F64CFCDCFCECCCECC
:100FF900120E25EF2430F52D752E2EAF17AE16AD36
:1010090015AC14120D10AB07AA067C007D64120EF4
:10101900257E007F0ACFCDCFCECCCE120E25EF2470
:1010290030F52F7C007D0AAF03AE02120E25ED24A8
:1010390030F530AB2C7D027F24121321AB2D7D02BC
:101049007F2D121321AB2E7D027F36121321AB2F78
:101059007D027F3F121321AB307D027F48021321AD
:1011F500AF1FAE1EAD1DAC1C120D10AB07AA067CB1
:10120500037DE8120E25EF2430F5317C037DE8AF30
:1012150003AE02120E257E007F64CFCDCFCECCCE9D
:10122500120E25EF2430F532AF1FAE1EAD1DAC1CDE
:10123500120D10AB07AA067C007D64120E257E00F8
:101245007F0ACFCDCFCECCCE120E25EF2430F5338D
:1012550075342E7C007D0AAF03AE02120E25ED24F7
:1012650030F535AB317D047F18121321AB327D0487
:101275007F21121321AB337D047F2A121321AB3456
:101285007D047F33121321AB357D047F3C0213218E
:10177D00759850758920758DFD758BFDE4F587D2B3
:02178D008E22AA
:0817DC008F993099FDC299229A
:1010690012177D121766121145121675759D0F75A7
:10107900BCA0E4FBFDFF1214D17B01E4FD7F121239
:1010890014D17B02E4FD7F241214D17B03E4FD7F9C
:10109900361214D17B04E4FD7F481214D17B05E498
:1010A900FD7F5A1214D17B06E4FD7F6C1214D17BAB
:1010B900FF7A1779CF7D02E4FF1215B97BFF7A1702
:1010C90079D37D027F511215B97BFF7A1779D97DC2
:1010D90004E4FF1215B97B077D047F451214D11270
:1010E9001473AC06AD07E4120CD78F1F8E1E8D1D2D
:1010F9008C1C7F0312163BAC06AD07E4120CD78F8C
:10110900138E128D118C10120E691211F5E4F53E31
:10111900F53F742C253FF8E6FF1217DC053FE53F44
:101129007002053EC3940AE53E940040E57F0D1226
:0C11390017DC7F0A1217DC1217C180A31C
:10163B00E4F5BDF5BEE5BC54E044084FF5BC7FFABC
:10164B00E5BC30E41E53BCEFAEBDEEFD7C007E006E
:10165B007802C333CE33CED8F9FFE5BE5403FDEF8A
:09166B004DFF22DFDB7E047F004D
:011674002253
:0F17B1007D157C03ED1D70011C144C70F7DFF1EA
:0117C0002206
:10000300003E5149453E0000427F4000004261519D
:100013004946002141454B31001814127F10002737
:1000230045454539003C4A494930000171090503FA
:1000330000364949493600064949291E000036362B
:10004300000000005636000000081422410000148E
:10005300141414140000412214080002015109066B
:1000630000324959513E007C1211127C007F4949EC
:100073004936003E41414122007F4141221C007F1D
:1000830049494941007F09090901003E4149497A2B
:10009300007F0808087F0000417F410000204041A5
:1000A3003F01007F08142241007F40404040007F11
:1000B300020C027F007F0408107F003E4141413E55
:1000C300007F09090906003E4151215E007F09199D
:1000D30029460046494949310001017F0101003F9A
:1000E3004040403F001F2040201F003F4038403F1A
:1000F300006314081463000708700807006151497E
:10010300454300007F41410000552A552A55000010
:1001130041417F000004020102040040404040408E
:10012300000001020400002054545478007F484426
:10013300443800384444442000384444487F00385D
:100143005454541800087E0901020018A4A4A47C86
:10015300007F080404780000447D40000040808450
:100163007D00007F102844000000417F4000007C98
:1001730004180478007C08040478003844444438A4
:1001830000FC242424180018242418FC007C0804F0
:10019300040800485454542000043F444020003CC9
:1001A3004040207C001C2040201C003C4030403C50
:1001B300004428102844001CA0A0A07C00446454E0
:1001C3004C44141414141414000000000000000024
:1001D3000000000000000000000000F80000000024
:1001E300000000333000000000100C06100C060065
:1001F300000000000000000040C07840C0784000CC
:10020300043F04043F040400007088FC083000002D
:10021300001820FF211E0000F008F000E018000085
:1002230000211C031E211E0000F00888700000003E
:100233001E2123241927211010160E000000000090
:100243000000000000000000000000E018040200AD
:10025300000000071820400000020418E00000001E
:100263000040201807000000404080F0804040001C
:100273000202010F01020200000000F00000000072
:100283000101011F01010100000000000000000046
:1002930080B07000000000000000000000000000BB
:1002A3000001010101010101000000000000000044
:1002B30000303000000000000000000080601804DF
:1002C300006018060100000000E010080810E000BC
:1002D300000F102020100F00001010F80000000085
:1002E3000020203F202000000070080808887000CC
:1002F300003028242221300000300888884830004C
:100303000018202020110E000000C02010F800006B
:1003130000070424243F240000F808888808080004
:100323000019212020110E0000E010888818000019
:10033300000F112020110E0000380808C8380800EB
:100343000000003F0000000000708808088870006B
:10035300001C222121221C0000E010080810E000EC
:100363000000312222110F00000000C0C000000075
:10037300000000303000000000000080000000009A
:100383000000806000000000000080402010080092
:10039300000102040810200040404040404040005B
:1003A3000404040404040400000810204080000036
:1003B3000020100804020100007048080808F0003B
:1003C3000000003036010000C030C828E810E0000B
:1003D3000718272423140B000000C038E000000096
:1003E300203C23020227382008F888888870000000
:1003F300203F202020110E00C030080808083800D4
:10040300071820202010080008F808080810E0004A
:10041300203F202020100F0008F88888E8081000EB
:10042300203F20202320180008F88888E8081000BF
:10043300203F200003000000C030080808380000F7
:1004430007182020221E020008F808000008F808F8
:10045300203F210101213F20000808F8080800007F
:100463000020203F2020000000000808F8080800B2
:10047300C08080807F00000008F888C0281808002A
:10048300203F20012638200008F808000000000063
:10049300203F20202020300008F8F800F8F808005A
:1004A300203F003F003F200008F830C00008F80854
:1004B300203F200007183F00E01008080810E00064
:1004C3000F10202020100F0008F808080808F0007B
:1004D300203F210101010000E01008080810E0009E
:1004E3000F18242438504F0008F888888888700033
:1004F300203F2000030C30200070880808083800D3
:100503000038202121221C00180808F808081800C8
:100513000000203F2000000008F808000008F80849
:10052300001F202020201F000878880000C83808FA
:10053300000007380E010000F80800F80008F80072
:10054300033C0700073C030008186880806818080C
:1005530020302C03032C30200838C800C83808008A
:100563000000203F2000000010080808C8380800D9
:100573002038262120201800000000FE020202007D
:100583000000007F40404000000C30C0000000002D
:10059300000000010638C00000020202FE00000055
:1005A300004040407F0000000000040202020400FB
:1005B3000000000000000000000000000000000038
:1005C3008080808080808080000202040000000020
:1005D3000000000000000000000080808080000018
:1005E3000019242222223F2008F800808000000006
:1005F300003F112020110E000000008080800000C9
:10060300000E112020201100000000808088F800D7
:10061300000E112020103F20000080808080000009
:10062300001F222222221300008080F0888888186D
:100633000020203F20200000000080808080800078
:10064300006B94949493600008F80080808000000D
:10065300203F210000203F200080989800000000E8
:100663000020203F20200000000000809898000018
:1006730000C08080807F000008F800008080800038
:10068300203F24022D302000000808F8000000005D
:100693000020203F20200000808080808080800018
:1006A300203F20003F20003F8080008080800000AA
:1006B300203F210000203F20000080808080000038
:1006C300001F202020201F00808000808000000069
:1006D30080FFA12020110E00000000808080800098
:1006E300000E112020A0FF80808080008080800089
:1006F30020203F21200001000000808080808000B6
:100703000033242424241900008080E0808000002A
:100713000000001F20200000808000000080800077
:10072300001F202020103F208080800000808080D8
:1007330000010E3008060100808000800080808068
:100743000F300C030C300F0000808000808080008D
:100753000020312E0E3120008080800000808080B8
:1007630080818E7018060100008080808080800068
:100773000021302C2221300000000000807C020286
:1007830000000000003F404000000000FF000000A8
:1007930000000000FF0000000002027C8000000057
:1007A3000040403F00000000000601010202040473
:1007B30000000000000000000000F888888888FF1F
:1007C30088888888F800000000000000000000000E
:1007D300000000000000000000001F080808087F58
:1007E300888888889F80F0000000000000000000D7
:1007F300000000000000000000007E92929292929E
:100803009292929E80E00000000000000000000031
:100813000000000000000000040404040C3404047D
:1008230044847F040404040000000000000000006E
:1008330000000000000000000014A4442434AD664E
:1008430024940444A41400000000000000000000ED
:10085300000000000000000008090808090909FD5C
:1008630009090B0808090800000000000000000047
:1008730000000000000000001010D0FF9050205036
:100883004C434C502040400000000000000000009A
:100893000000000000000000040300FF0041445872
:1008A300414E605847404000000000000000000037
:1008B30000000000000000001060028C00FE02F245
:1008C30002FE00F800FF000000000000000000002E
:1008D300000000000000000004047E018047300F88
:1008E30010270047807F0000000000000000000088
:1008F3000000000000000000000022322AA6A262CD
:100903002111098101000000000000000000000027
:100913000000000000000000004222130B42827E10
:1009230002020A122346000000000000000000003B
:1009330000000000000000002030AC63300088C8D5
:10094300A8998E88A8C88800000000000000000055
:1009530000000000000000002267221212804030D5
:100963000F00003F40407100000000000000000045
:100973000000000000000000060909E6F80C04026C
:1009830002020202041E000000000000000000003A
:100993000000000000000000000000071F3020409E
:1009A3004040404020100000000000000000000014
:0809B30000000000000000003C
:10173400EF4E60157D087C07ED1DAA0470011C4A5C
:0917440070F6EF1F70EA1E80E749
:01174D002279
:10157700F583E5822CF582E43583F583E493FF7DDB
:011587000162
:10158800ED6004D2A38002C2A3C2A4E4FEEEC39419
:1015980008748094805015C2A0EF30E704D2A1806F
:1015A80002C2A1D2A0EF25E0FF0E80E1D2A4D2A30F
:0115B8002210
:10171400AC07ED24B0FFE4FD121588EC54F0C4547A
:101724000F4410FF121588EC540F4401FF02158872
:10178F00E4FD7F8D1215887F141215887FAF021527
:01179F0088C1
:1017A000E4FD7F8D1215887F101215887FAE02151B
:0117B00088B0
:10167500E4FCECC3940874809480502CEC24B0FFF7
:10168500E4FD121588E4FF1215887F10121588E411
:10169500FBEBC3948074809480500A7D01E4FF12B3
:0816A50015880B80EC0C80CAD3
:0116AD00221A
:06132100AA07A905AF03B5
:10132700E4FCEF24E0FBEAD3947F748094804004CC
:10133700E4FA0909AF02AD01121714E4FCECC394F7
:101347000874809480501D75F010EBA42CF582E48E
:1013570035F0F583E58224CBF582E5833401121558
:10136700810C80D9AF02E904FD121714E4FCECC329
:10137700940874809480501D75F010EBA42CF582AE
:10138700E435F0F583E58224D3F582E58334011251
:0513970015810C80D956
:01139C00222E
:04174E008F68A905F2
:101752007F017E00AD0119ED6009AD687C00120DBC
:03176200BE80F155
:011765002261
:08139D008F568D578A588B59B9
:1013A500E4F55EF55CE55CC3955A505FC3E55A9577
:1013B5005C14FD7F0A12174EAC58AD59CFCDCFCE78
:1013C500CCCE120DD07C007D0A120DD08D5DE55E70
:1013D5007020E55A14FFE55CC39F5016E55D700F5C
:1013E500E55BC313855CF0A42556FF7B2080137550
:1013F5005E01E55BC313855CF0A42556FFE55D241E
:0B14050030FBAD57121321055C809AEC
:0114100022B9
:0A15B9008F5F8D608B618A62896389
:1015C300E4F564AB61AA62A9638564827583001242
:1015D3000D91FB6021AD60AF5F1213217408255F8D
:1015E300F55FD39478748094804007E4F55F0560D9
:0615F3000560056480CDD7
:0115F90022CF
:0414D100AA07A905B8
:1014D500E4F55F121714E4FCECC394107480948057
:1014E500501575F040EBA424BBF582E5F0340712E6
:1014F5001577055F0C80E1AF02E904FD121714E4CE
:10150500FCECC3941074809480501575F040EBA4E6
:1015150024DBF582E5F03407121577055F0C80E1D1
:0115250022A3
:041411008F4C8B4E23
:10141500E4F553F554E54F5407700BE54F131313DB
:10142500541FF555800AE54F131313541F04F55542
:101435008D55E555C3954F5034AD55AF4C12171426
:10144500AC4CECC3954E5021AB50AA51A952055452
:10145500E554AE537002055314F5828E83120D9137
:0D146500FF7D011215880C80D9055580C54A
:011472002257
:10114500D2A27F647E00121734C2A27F647E001291
:101155001734D2A2E4FD7FAE121588E4FF1215887C
:101165007F101215887F401215887F811215887FA0
:10117500CF1215887FA11215887FC81215887FA602
:101185001215887FA81215887F3F1215887FD31204
:101195001588E4FF1215887FD51215887F801215F2
:1011A500887FD91215887FF11215887FDA12158884
:1011B5007F121215887FDB1215887F401215887FF4
:1011C500201215887F021215887F8D1215887F14CD
:1011D5001215887FA41215887FA61215887FAF1275
:1011E50015887FAF121588121675E4FDFF021714D6
:0C15FA00D2957B017A007D017C007F010E
:061606008C668D67A90748
:10160C00E4FFEFC3995027E4FEEEC39567E56664EB
:10161C0080F87480985014E4FDEDC39BEA6480F864
:0E162C0074809850030D80F10E80DE0F80D484
:01163A00228D
:101766001215FAC2957B3F7D017F06121606D295A9
:071776007D017F050216064C
:1016E400E4F564F565756408D3E564940074809446
:1016F40080401AC29500E56513F5651215FA309518
:0F170400034365807B081215FE156480DBAF651B
:0117130022B3
:0216AE008F6447
:1016B000E4F565756508D3E5659400748094804011
:1016C00022C29500E5641392957B0F1215FED29508
:1016D000E564C313F5647B017D017F0112160615D5
:0316E0006580D34F
:0116E30022E4
:101473001217667FCC1216AE7F441216AE12176691
:101483007FCC1216AE7FBE1216AE1216E48F631215
:1014930016E4EFFEE563FFFDAC06E4120CD7E4FBB4
:1014A300FA7980783D120AB38F628E618D608C5F0A
:1014B300E4FFFE7D207C41AB62AA61A960A85F12B4
:0E14C3000AB3E4FBFAF9783F1209C2020D10D9
:1009BB00020D7CE86480F8E933E83360110460F0E1
:1009CB00ED33EC337009E8FCE9FDEAFEEBFF2204A2
:1009DB0060DED3EB9FEA9EE99DE8C2E78CF0C2F79D
:1009EB0095F0400CE8CCF8E9CDF9EACEFAEBCFFB69
:1009FB00120D4785D0F05804700320D5B3E804706E
:100A0B00075002B2D5020D8692D5EC0460F7E4CC08
:100A1B00C0E0C398F8603B94186008400DD0E0FB31
:100A2B00020D5EE4FBFAC9FC8028E830E406E4C959
:100A3B00FBE4CAFCE830E305E4C9CACBFCE8540785
:100A4B006010F8C3E913F9EA13FAEB13FBEC13FC90
:100A5B00D8F130F52FC3E49CFCEF9BFFEE9AFEED33
:100A6B0099FDD0E0FBEF4E4D4C701222DB03020DD3
:100A7B0083EC2CFCEF33FFEE33FEED33FDED30E773
:100A8B00EB020D5EEF2BFFEE3AFEED39FDD0E0FBF6
:100A9B0050130BBB0003020D86ED13FDEE13FEEF9F
:080AAB0013FFEC13FC020D5EC9
:100AB300EC4D6011E8497017ED33EC3304600DE43D
:100AC300FCFFFEFD22E933E8330470F8020D7C12CB
:100AD3000D4758046009E4CC2481500628500902CC
:100AE3000D86284003020D83C0E0EB4A7044B980B1
:100AF30006D0E0FB020D72EF4E701CBD8008EBFFC9
:100B0300EAFEE9FD80EBE98DF0A4FEE5F0020B9C23
:100B1300E9CDF9EAFEEBFFEF89F0A4FCE5F0CE891D
:100B2300F0A42EFFE435F0CD89F0A42DFEE435F0DA
:100B33008067EF4E7005BD80D780C3EF8BF0A4AC08
:100B4300F0EE8BF0A42CFCE435F0F8EF8AF0A42C43
:100B5300E5F038FCE433CB8DF0A42CFCE5F03BF856
:100B6300EE8AF0A42CFCE5F038F8E433CF89F0A446
:100B73002CFCE5F038CF3400CE89F0A42FFFE5F04C
:100B83003EFEE433C98DF0A42EFEE5F039CD8AF0A4
:100B9300A42FFFE5F03EFEE43DFD33D0E0FB50071C
:100BA3000BBB000F020D86EC2CFCEF33FFEE33FE84
:060BB300ED33FD020D5EB2
:100BB900020D86EC5D046005E859047003020D7CA2
:100BC900120D47580460F6EC4860F2EC7004FDFE23
:100BD900FF22C860DB2481C85009C398600250060F
:100BE900020D839850CAF582E9294B4A7005AB82F8
:100BF900020D7275F0007C1A7880C3EF9BEE9AEDB6
:100C090099400DC3EF9BFFEE9AFEED99FDE842F086
:100C1900DC23ACF0D0E0FFD0E0FED0E0FDAB8220D9
:100C2900E7101BEB60BAEC2CFCEF33FFEE33FEED63
:100C390033FD020D5EE803F830E705C0F075F000FA
:100C4900EF2FFFEE33FEED33FD40B830E7C280AA47
:100C590074F8CC6480CCC86480C8F58204604FC342
:100C6900EB9FF5F0EA9E42F0E99D42F0E89C45F0E1
:100C7900603C501DE5825FFFE582D313CB5BCBF46B
:100C89002B5582FB50280ABA002409B90020088094
:100C99001DE5825BFBE582D313CF5FCFF4C3132F2E
:100CA9005582FF50090EBE00050DBD00010CC3EBB6
:100CB9009FF5F0EA9E42F0E99D42F0E89C45F0601C
:090CC90007CC4820E701B3EC223E
:100CD20075F020800E75F010800575F0087D007E9D
:100CE200007F003392D530D503120E5BEC334010F7
:100CF200EF33FFEE33FEED33FDEC33FCD5F0ED22A6
:0E0D0200E5F0247EA2D513CC92E7CDCEFF22E1
:100D1000EDD2E7CD33EC3392D524814006E4FFFEDB
:100D2000FDFC22FCE4CFCECDCC24E0501174FF803A
:100D3000EDC3CC13CCCD13CDCE13CECF13CF0470D7
:070D4000F030D5DE020E5B6E
:100D4700E9D2E7C933E833F892D5EDD2E7CD33ECF2
:070D570033FC5002B2D5226B
:100D5E00EC30E7100FBF000C0EBE00080DBD0004F6
:100D6E000BEB6014A2D5EB13FCED92E7FD2274FFA2
:100D7E00FCFDFEFF22E480F8A2D574FF13FC7D80FB
:030D8E00E480EF0F
:1012A100021069E493A3F8E493A34003F68001F2EA
:1012B10008DFF48029E493A3F85407240CC8C3334E
:1012C100C4540F4420C8834004F456800146F6DF1D
:1012D100E4800B0102040810204080901526E47E72
:1012E100019360BCA3FF543F30E509541FFEE49312
:1012F100A360010ECF54C025E060A840B8E493A3D9
:10130100FAE493A3F8E493A3C8C582C8CAC583CA03
:10131100F0A3C8C582C8CAC583CADFE9DEE780BEBB
:011576000074
:100D9100BB010CE58229F582E5833AF583E0225017
:100DA10006E92582F8E622BBFE06E92582F8E22261
:0D0DB100E58229F582E5833AF583E493227B
:100DBE00EF8DF0A4A8F0CF8CF0A428CE8DF0A42E49
:020DCE00FE2203
:100DD000BC000BBE0029EF8DF084FFADF022E4CC07
:100DE000F875F008EF2FFFEE33FEEC33FCEE9DECD0
:100DF000984005FCEE9DFE0FD5F0E9E4CEFD22ED16
:100E0000F8F5F0EE8420D21CFEADF075F008EF2F5F
:100E1000FFED33FD4007985006D5F0F222C398FD50
:050E20000FD5F0EA22ED
:100E2500C2D5EC30E709B2D5E4C39DFDE49CFCEEE8
:100E350030E715B2D5E4C39FFFE49EFE120DD0C383
:100E4500E49DFDE49CFC8003120DD030D507C3E47E
:060E55009FFFE49EFE2257
:0E0E5B00C3E49FFFE49EFEE49DFDE49CFC22A8
:00000001FF
