:030000000210AA41
:0C10AA00787FE4F6D8FD75814C0210F14F
:0414990050483A007D
:101365000408000000000411000000001215000030
:101375000000000000000000000000000000000068
:07138500050C000000000050
:0D148300007F087E017DF3DDFEDEFCDFFA58
:011490002239
:100E1D00E4FFFE7DA07C40AB0BAA0AA909A808122D
:100E2D000A73E4FBFA79807844120B7C8F0B8E0ADF
:100E3D008D098C087F4E7E627DBC7CC0AB0BAA0AEF
:100E4D00A909A808120A737B7F7A6A79AD784112D5
:100E5D0009828F148E138D128C11E4FFFEFDFCABF5
:100E6D0014AA13A912A811120C1960025009E4F565
:100E7D0014F513F512F511E4FFFE7D607C41AB1402
:100E8D00AA13A912A811120C19600E400C75149A10
:100E9D00751399751261751141E4FFFE7DC87C4291
:100EAD00AB14AA13A912A811120A73120CC4AB0722
:100EBD00AA067C037DE8120DD9EF2430F5157C03CD
:100ECD007DE8AF03AE02120DD97E007F64CFCDCF8A
:100EDD00CECCCE120DD9EF2430F51675172EE4FFBA
:100EED00FE7DC87C42AB14AA13A912A811120A7375
:100EFD00120CC4AB07AA067C007D64120DD97E00CE
:100F0D007F0ACFCDCFCECCCE120DD9EF2430F51830
:100F1D007C007D0AAF03AE02120DD9ED2430F51918
:100F2D00AB157D027F181211AAAB167D027F21121F
:100F3D0011AAAB177D027F2A1211AAAB187D027F71
:0D0F4D00331211AAAB197D027F3C0211AADC
:10143F00759850758920758DFD758BFDE4F587D2F4
:02144F008E22EB
:081491008F993099FDC29922E8
:10100A0012143F120F5A12138D759D0775BCA0E476
:10101A00FBFDFF1212727B01E4FD7F121212727B3A
:10102A0002E4FD7F241212727B03E4FD7F36121262
:10103A00727B04E4FD7F481212727B05E4FD7F5A3D
:10104A001212727B06E4FD7F6C1212727BFF7A1415
:10105A0079997D02E4FF1212B57F011212F2AC06F1
:10106A00AD07E4120C8B8F0B8E0A8D098C08120EB9
:10107A001DE4F527F52874152528F8E6FF121491C2
:10108A000528E52870020527C39405E52794004042
:10109A00E57F0D1214917F0A12149112148380B9FC
:1012F200E4F5BDF5BEE5BC54E044084FF5BC7FFA09
:10130200E5BC30E41E53BCEFAEBDEEFD7C007E00BA
:101312007802C333CE33CED8F9FFE5BE5403FDEFD6
:091322004DFF22DFDB7E047F0099
:01132B00229F
:0F1473007D157C03ED1D70011C144C70F7DFF12B
:011482002247
:1013B400E4F54AF54B8E4A8F4BD3E54B9400E54A4E
:1013C400940040117FFF7E0012142CE54B154B70E6
:0513D400E8154A80E469
:0113D90022F1
:10142C00E4FDFCC3ED9FEC9E5008000DBD00010CCB
:02143C0080F13D
:01143E00228B
:10000300003E5149453E0000427F4000004261519D
:100013004946002141454B31001814127F10002737
:1000230045454539003C4A494930000171090503FA
:1000330000364949493600064949291E000036362B
:10004300000000005636000000081422410000148E
:10005300141414140000412214080002015109066B
:1000630000324959513E007C1211127C007F4949EC
:100073004936003E41414122007F4141221C007F1D
:1000830049494941007F09090901003E4149497A2B
:10009300007F0808087F0000417F410000204041A5
:1000A3003F01007F08142241007F40404040007F11
:1000B300020C027F007F0408107F003E4141413E55
:1000C300007F09090906003E4151215E007F09199D
:1000D30029460046494949310001017F0101003F9A
:1000E3004040403F001F2040201F003F4038403F1A
:1000F300006314081463000708700807006151497E
:10010300454300007F41410000552A552A55000010
:1001130041417F000004020102040040404040408E
:10012300000001020400002054545478007F484426
:10013300443800384444442000384444487F00385D
:100143005454541800087E0901020018A4A4A47C86
:10015300007F080404780000447D40000040808450
:100163007D00007F102844000000417F4000007C98
:1001730004180478007C08040478003844444438A4
:1001830000FC242424180018242418FC007C0804F0
:10019300040800485454542000043F444020003CC9
:1001A3004040207C001C2040201C003C4030403C50
:1001B300004428102844001CA0A0A07C00446454E0
:1001C3004C44141414141414000000000000000024
:1001D3000000000000000000000000F80000000024
:1001E300000000333000000000100C06100C060065
:1001F300000000000000000040C07840C0784000CC
:10020300043F04043F040400007088FC083000002D
:10021300001820FF211E0000F008F000E018000085
:1002230000211C031E211E0000F00888700000003E
:100233001E2123241927211010160E000000000090
:100243000000000000000000000000E018040200AD
:10025300000000071820400000020418E00000001E
:100263000040201807000000404080F0804040001C
:100273000202010F01020200000000F00000000072
:100283000101011F01010100000000000000000046
:1002930080B07000000000000000000000000000BB
:1002A3000001010101010101000000000000000044
:1002B30000303000000000000000000080601804DF
:1002C300006018060100000000E010080810E000BC
:1002D300000F102020100F00001010F80000000085
:1002E3000020203F202000000070080808887000CC
:1002F300003028242221300000300888884830004C
:100303000018202020110E000000C02010F800006B
:1003130000070424243F240000F808888808080004
:100323000019212020110E0000E010888818000019
:10033300000F112020110E0000380808C8380800EB
:100343000000003F0000000000708808088870006B
:10035300001C222121221C0000E010080810E000EC
:100363000000312222110F00000000C0C000000075
:10037300000000303000000000000080000000009A
:100383000000806000000000000080402010080092
:10039300000102040810200040404040404040005B
:1003A3000404040404040400000810204080000036
:1003B3000020100804020100007048080808F0003B
:1003C3000000003036010000C030C828E810E0000B
:1003D3000718272423140B000000C038E000000096
:1003E300203C23020227382008F888888870000000
:1003F300203F202020110E00C030080808083800D4
:10040300071820202010080008F808080810E0004A
:10041300203F202020100F0008F88888E8081000EB
:10042300203F20202320180008F88888E8081000BF
:10043300203F200003000000C030080808380000F7
:1004430007182020221E020008F808000008F808F8
:10045300203F210101213F20000808F8080800007F
:100463000020203F2020000000000808F8080800B2
:10047300C08080807F00000008F888C0281808002A
:10048300203F20012638200008F808000000000063
:10049300203F20202020300008F8F800F8F808005A
:1004A300203F003F003F200008F830C00008F80854
:1004B300203F200007183F00E01008080810E00064
:1004C3000F10202020100F0008F808080808F0007B
:1004D300203F210101010000E01008080810E0009E
:1004E3000F18242438504F0008F888888888700033
:1004F300203F2000030C30200070880808083800D3
:100503000038202121221C00180808F808081800C8
:100513000000203F2000000008F808000008F80849
:10052300001F202020201F000878880000C83808FA
:10053300000007380E010000F80800F80008F80072
:10054300033C0700073C030008186880806818080C
:1005530020302C03032C30200838C800C83808008A
:100563000000203F2000000010080808C8380800D9
:100573002038262120201800000000FE020202007D
:100583000000007F40404000000C30C0000000002D
:10059300000000010638C00000020202FE00000055
:1005A300004040407F0000000000040202020400FB
:1005B3000000000000000000000000000000000038
:1005C3008080808080808080000202040000000020
:1005D3000000000000000000000080808080000018
:1005E3000019242222223F2008F800808000000006
:1005F300003F112020110E000000008080800000C9
:10060300000E112020201100000000808088F800D7
:10061300000E112020103F20000080808080000009
:10062300001F222222221300008080F0888888186D
:100633000020203F20200000000080808080800078
:10064300006B94949493600008F80080808000000D
:10065300203F210000203F200080989800000000E8
:100663000020203F20200000000000809898000018
:1006730000C08080807F000008F800008080800038
:10068300203F24022D302000000808F8000000005D
:100693000020203F20200000808080808080800018
:1006A300203F20003F20003F8080008080800000AA
:1006B300203F210000203F20000080808080000038
:1006C300001F202020201F00808000808000000069
:1006D30080FFA12020110E00000000808080800098
:1006E300000E112020A0FF80808080008080800089
:1006F30020203F21200001000000808080808000B6
:100703000033242424241900008080E0808000002A
:100713000000001F20200000808000000080800077
:10072300001F202020103F208080800000808080D8
:1007330000010E3008060100808000800080808068
:100743000F300C030C300F0000808000808080008D
:100753000020312E0E3120008080800000808080B8
:1007630080818E7018060100008080808080800068
:100773000021302C2221300000000000807C020286
:1007830000000000003F404000000000FF000000A8
:1007930000000000FF0000000002027C8000000057
:1007A3000040403F00000000000601010202040473
:1007B3000000000000000000F212FE12FE12F20020
:1007C3009058B4133058900000000000000000005F
:1007D3000000000000000000FF4A49484949FF00AB
:1007E300884629112947800000000000000000000E
:1007F300000000000000000084E45CC400F8084826
:10080300484808FF08098A000000000000000000B3
:100813000000000000000000003F10BF403F001E2A
:10082300925E20173846F10000000000000000002F
:1008330000000000000000000000FC242424FC252C
:100843002624FC24242404000000000000000000EF
:10085300000000000000000040308F80844C5525CC
:100863002525554C8080800000000000000000001A
:1008730000000000000000001010D0FF9050205036
:100883004C434C502040400000000000000000009A
:100893000000000000000000040300FF0041445872
:1008A300414E605847404000000000000000000037
:1008B30000000000000000001060028C00FE02F245
:1008C30002FE00F800FF000000000000000000002E
:1008D300000000000000000004047E018047300F88
:1008E30010270047807F0000000000000000000088
:1008F3000000000000000000000022322AA6A262CD
:100903002111098101000000000000000000000027
:100913000000000000000000004222130B42827E10
:1009230002020A122346000000000000000000003B
:1009330000000000000000002030AC63300088C8D5
:10094300A8998E88A8C88800000000000000000055
:1009530000000000000000002267221212804030D5
:100963000F00003F40407100000000000000000045
:0809730000000000000000007C
:1013FA00EF4E60157D087C07ED1DAA0470011C4A9A
:09140A0070F6EF1F70EA1E80E786
:0114130022B6
:10132C00F583E5822CF582E43583F583E493FF7D28
:01133C0001AF
:10133D00ED6004D2828002C282C283E4FEC2A2EFBB
:10134D0030E704D2808002C280D2A2EF25E0FF0EEA
:07135D00BE08EAD283D28230
:011364002266
:1013DA00AC07ED24B0FFE4FD12133DEC54F0C45405
:1013EA000F4410FF12133DEC540F4401FF02133D4A
:10145100E4FD7F8D12133D7F1412133D7FAF021304
:011461003D4D
:10146200E4FD7F8D12133D7F1012133D7FAE0213F8
:011472003D3C
:10138D00E4FCEC24B0FFE4FD12133DE4FF12133D29
:10139D007F1012133DE4FB7D01E4FF12133D0BBBE7
:0613AD0080F50CBC08DC19
:0113B3002217
:0611AA00AA07A905AF032E
:1011B000E4FCEF24E0FBEAD3947F4004E4FA09095D
:1011C000AF02AD011213DAE4FC75F010EBA42CF5BC
:1011D00082E435F0F583E58224CBF582E5833401A2
:1011E0001213360CBC08E2AF02E904FD1213DAE474
:1011F000FC75F010EBA42CF582E435F0F583E58264
:1012000024D3F582E58334011213360CBC08E222A4
:041414008F4CA9054B
:101418007F017E00AD0119ED6009AD4C7C00120D15
:031428007280F1DE
:01142B00229E
:081136008F3B8D3C8A3D8B3E8E
:10113E00E4F543F541E541C3953F505FC3E53F9567
:10114E004114FD7F0A121414AC3DAD3ECFCDCFCE6F
:10115E00CCCE120D847C007D0A120D848D42E543A7
:10116E007020E53F14FFE541C39F5016E542700F16
:10117E00E540C3138541F0A4253BFF7B208013750A
:10118E004301E540C3138541F0A4253BFFE542240E
:0B119E0030FBAD3C1211AA0541809A05
:0111A9002223
:0A12B5008F448D458B468A47894817
:1012BF00E4F549AB46AA47A94885498275830012D0
:1012CF000D45FB601DAD45AF441211AA74082544AE
:1012DF00F544D394784007E4F544054505450549A1
:0212EF0080D1AC
:0112F10022DA
:04127200AA07A90519
:10127600E4F5441213DAE4FC75F040EBA424BBF564
:1012860082E5F0340712132C05440CBC10EAAF02B9
:10129600E904FD1213DAE4FC75F040EBA424DBF557
:0E12A60082E5F0340712132C05440CBC10EA4C
:0112B4002217
:041210008F318B335C
:10121400E4F538F539E5345407700BE5341313134A
:10122400541FF53A800AE534131313541F04F53A96
:101234008D3AE53AC395345034AD3AAF311213DAEE
:10124400AC31ECC395335021AB35AA36A9370539F7
:10125400E539AE387002053814F5828E83120D45D7
:0D126400FF7D0112133D0C80D9053A80C5B5
:01127100225A
:100F5A00D2817F647E001213FAC2817F647E0012FE
:100F6A0013FAD281E4FD7FAE12133DE4FF12133D62
:100F7A007F1012133D7F4012133D7F8112133D7F74
:100F8A00CF12133D7FA112133D7FC812133D7FA6D6
:100F9A0012133D7FA812133D7F3F12133D7FD312D8
:100FAA00133DE4FF12133D7FD512133D7F801213C8
:100FBA003D7FD912133D7FF112133D7FDA12133DA3
:100FCA007F1212133D7FDB12133D7F4012133D7FC8
:100FDA002012133D7F0212133D7F8D12133D7F14A1
:100FEA0012133D7FA412133D7FA612133D7FAF1249
:100FFA00133D7FAF12133D12138DE4FDFF0213DA86
:10097B00020D30E86480F8E933E83360110460F06D
:10098B00ED33EC337009E8FCE9FDEAFEEBFF2204E2
:10099B0060DED3EB9FEA9EE99DE8C2E78CF0C2F7DD
:1009AB0095F0400CE8CCF8E9CDF9EACEFAEBCFFBA9
:1009BB00120CFB85D0F05804700320D5B3E80470FB
:1009CB00075002B2D5020D3A92D5EC0460F7E4CC95
:1009DB00C0E0C398F8603B94186008400DD0E0FB72
:1009EB00020D12E4FBFAC9FC8028E830E406E4C9E6
:1009FB00FBE4CAFCE830E305E4C9CACBFCE85407C6
:100A0B006010F8C3E913F9EA13FAEB13FBEC13FCD0
:100A1B00D8F130F52FC3E49CFCEF9BFFEE9AFEED73
:100A2B0099FDD0E0FBEF4E4D4C701222DB03020D13
:100A3B0037EC2CFCEF33FFEE33FEED33FDED30E7FF
:100A4B00EB020D12EF2BFFEE3AFEED39FDD0E0FB82
:100A5B0050130BBB0003020D3AED13FDEE13FEEF2B
:080A6B0013FFEC13FC020D1255
:100A7300EC4D6011E8497017ED33EC3304600DE47D
:100A8300FCFFFEFD22E933E8330470F8020D301257
:100A93000CFB58046009E4CC248150062850090259
:100AA3000D3A284003020D37C0E0EB4A7044B98089
:100AB30006D0E0FB020D26EF4E701CBD8008EBFF55
:100AC300EAFEE9FD80EBE98DF0A4FEE5F0020B5CA4
:100AD300E9CDF9EAFEEBFFEF89F0A4FCE5F0CE895E
:100AE300F0A42EFFE435F0CD89F0A42DFEE435F01B
:100AF3008067EF4E7005BD80D780C3EF8BF0A4AC49
:100B0300F0EE8BF0A42CFCE435F0F8EF8AF0A42C83
:100B1300E5F038FCE433CB8DF0A42CFCE5F03BF896
:100B2300EE8AF0A42CFCE5F038F8E433CF89F0A486
:100B33002CFCE5F038CF3400CE89F0A42FFFE5F08C
:100B43003EFEE433C98DF0A42EFEE5F039CD8AF0E4
:100B5300A42FFFE5F03EFEE43DFD33D0E0FB50075C
:100B63000BBB000F020D3AEC2CFCEF33FFEE33FE10
:060B7300ED33FD020D123E
:100B7900020D3AEC5D046005E859047003020D307A
:100B8900120CFB580460F6EC4860F2EC7004FDFEB0
:100B9900FF22C860DB2481C85009C398600250064F
:100BA900020D379850CAF582E9294B4A7005AB8284
:100BB900020D2675F0007C1A7880C3EF9BEE9AED42
:100BC90099400DC3EF9BFFEE9AFEED99FDE842F0C7
:100BD900DC23ACF0D0E0FFD0E0FED0E0FDAB82201A
:100BE900E7101BEB60BAEC2CFCEF33FFEE33FEEDA4
:100BF90033FD020D12E803F830E705C0F075F00087
:100C0900EF2FFFEE33FEED33FD40B830E7C280AA87
:100C190074F8CC6480CCC86480C8F582046043C38E
:100C2900EB9FF5F0EA9E42F0E99D42F0E89C45F021
:100C390060305018E5825FFFE582F42B5582FB5046
:100C4900210ABA001D09B90019088016E5825BFB63
:100C5900E582F42F5582FF50090EBE00050DBD0037
:100C6900010CC3EB9FF5F0EA9E42F0E99D42F0E8E2
:0D0C79009C45F06007CC4820E701B3EC2259
:100C860075F020800E75F010800575F0087D007EE9
:100C9600007F003392D530D503120E0FEC3340108F
:100CA600EF33FFEE33FEED33FDEC33FCD5F0ED22F2
:0E0CB600E5F0247EA2D513CC92E7CDCEFF222E
:100CC400EDD2E7CD33EC3392D524814006E4FFFE28
:100CD400FDFC22FCE4CFCECDCC24E0501174FF8087
:100CE400EDC3CC13CCCD13CDCE13CECF13CF047024
:070CF400F030D5DE020E0F07
:100CFB00E9D2E7C933E833F892D5EDD2E7CD33EC3F
:070D0B0033FC5002B2D522B7
:100D1200EC30E7100FBF000C0EBE00080DBD000442
:100D22000BEB6014A2D5EB13FCED92E7FD2274FFEE
:100D3200FCFDFEFF22E480F8A2D574FF13FC7D8047
:030D4200E480EF5B
:1010B60002100AE493A3F8E493A34003F68001F236
:1010C60008DFF48029E493A3F85407240CC8C3333B
:1010D600C4540F4420C8834004F456800146F6DF0A
:1010E600E4800B0102040810204080901365E47E22
:1010F600019360BCA3FF543F30E509541FFEE493FF
:10110600A360010ECF54C025E060A840B8E493A3C5
:10111600FAE493A3F8E493A3C8C582C8CAC583CAF0
:10112600F0A3C8C582C8CAC583CADFE9DEE780BEA8
:01138C000060
:100D4500BB010CE58229F582E5833AF583E0225063
:100D550006E92582F8E622BBFE06E92582F8E222AD
:0D0D6500E58229F582E5833AF583E49322C7
:100D7200EF8DF0A4A8F0CF8CF0A428CE8DF0A42E95
:020D8200FE224F
:100D8400BC000BBE0029EF8DF084FFADF022E4CC53
:100D9400F875F008EF2FFFEE33FEEC33FCEE9DEC1C
:100DA400984005FCEE9DFE0FD5F0E9E4CEFD22ED62
:100DB400F8F5F0EE8420D21CFEADF075F008EF2FAC
:100DC400FFED33FD4007985006D5F0F222C398FD9D
:050DD4000FD5F0EA223A
:100DD900C2D5EC30E709B2D5E4C39DFDE49CFCEE35
:100DE90030E715B2D5E4C39FFFE49EFE120D84C31C
:100DF900E49DFDE49CFC8003120D8430D507C3E417
:060E09009FFFE49EFE22A3
:0E0E0F00C3E49FFFE49EFEE49DFDE49CFC22F4
:00000001FF
