:03000000020FB735
:0C0FB700787FE4F6D8FD758134020FFE4F
:10134F008F318D328B3312148AAF31121277200006
:10135F0002C322AF32121277200002C322AF331220
:0C136F001277200002C3221214B2D32215
:1013E8008F2B8D2C12148AAF2B121277200002C378
:1013F80022AF2C121277200002C3221214B2D32279
:0213C6008F2B6B
:1013C80012148AE52B04FF1212772000037F0022F3
:0F13D8001213A28F2CD20112145A1214B2AF2C7E
:0113E70022E3
:0414FB0050483A001B
:1014420002100000040C0000000005120000000061
:071452000004080000000087
:0D14E500007F087E017DF3DDFEDEFCDFFAF6
:0114F20022D7
:1012EC007D407F901213E87F901213C67510008F0B
:1012FC0011AC10AD11EC120C8BE4FBFA79A0784018
:10130C00120A73E4FBFA797F7843120B7C8F0B8EF5
:06131C000A8D098C082275
:100E1D007F4E7E627DBC7CC0AB0BAA0AA909A808D7
:100E2D00120A737B7F7A6A79AD78411209828F0F2E
:100E3D008E0E8D0D8C0CE4FFFEFDFCAB0FAA0EA9E2
:100E4D000DA80C120C1960025009E4F50FF50EF502
:100E5D000DF50CE4FFFE7D607C41AB0FAA0EA90DD4
:100E6D00A80C120C19400BE4F50FF50E750D6075FD
:100E7D000C41E4FFFE7DC87C42AB0FAA0EA90DA864
:100E8D000C120A73120CC4AB07AA067C037DE81280
:100E9D000DD9EF2430F5127C037DE8AF03AE0212BD
:100EAD000DD97E007F64CFCDCFCECCCE120DD9EF34
:100EBD002430F51375142EE4FFFE7DC87C42AB0F74
:100ECD00AA0EA90DA80C120A73120CC4AB07AA0620
:100EDD007C007D64120DD97E007F0ACFCDCFCECCA4
:100EED00CE120DD9EF2430F5157C007D0AAF03AE7F
:0A0EFD0002120DD9ED2430F5162283
:10132200AB127D027F1812112FAB137D027F2112A7
:10133200112FAB147D027F2A12112FAB157D027F74
:0D1342003312112FAB167D027F3C02112FDC
:1014A000759850758920758DFD758BFDE4F587D293
:0214B0008E228A
:0814F3008F993099FDC2992286
:101043001214A0120F0712137BE4FBFDFF1211F71A
:101053007B01E4FD7F121211F77B02E4FD7F241272
:1010630011F77B03E4FD7F361211F77B04E4FD7F68
:10107300481211F77B05E4FD7F5A1211F77B06E452
:10108300FD7F6C1211F77BFF7A1479FB7D02E4FF7D
:1010930012123A1212EC120E1D121322E4FDFC740A
:1010A300122DF8E6FF1214F30DBD00010CED6405DB
:0810B3004C70EC1214E580DB27
:10148A00D29700D2960000000000C2970000000028
:06149A0000C296000022D2
:1014B200C29700D2960000000000D2970000000000
:0114C2002207
:10127700E4FEEFA806088002C333D8FC30E704D2A7
:10128700978002C29700D2960000000000C2960E17
:10129700BE08DF0000D2970000D29600000030970A
:0B12A70004C2008002D200C2960000CA
:0112B2002219
:1013A200E4FFD297FE00C2960000000000D2960031
:1013B20000EF25E0FF3097010F00000EBE08E6C2E5
:0313C20096000092
:0113C5002205
:10145A00200104C2978002D297000000D2960000B1
:08146A00000000C29600002200
:10000300003E5149453E0000427F4000004261519D
:100013004946002141454B31001814127F10002737
:1000230045454539003C4A494930000171090503FA
:1000330000364949493600064949291E000036362B
:10004300000000005636000000081422410000148E
:10005300141414140000412214080002015109066B
:1000630000324959513E007C1211127C007F4949EC
:100073004936003E41414122007F4141221C007F1D
:1000830049494941007F09090901003E4149497A2B
:10009300007F0808087F0000417F410000204041A5
:1000A3003F01007F08142241007F40404040007F11
:1000B300020C027F007F0408107F003E4141413E55
:1000C300007F09090906003E4151215E007F09199D
:1000D30029460046494949310001017F0101003F9A
:1000E3004040403F001F2040201F003F4038403F1A
:1000F300006314081463000708700807006151497E
:10010300454300007F41410000552A552A55000010
:1001130041417F000004020102040040404040408E
:10012300000001020400002054545478007F484426
:10013300443800384444442000384444487F00385D
:100143005454541800087E0901020018A4A4A47C86
:10015300007F080404780000447D40000040808450
:100163007D00007F102844000000417F4000007C98
:1001730004180478007C08040478003844444438A4
:1001830000FC242424180018242418FC007C0804F0
:10019300040800485454542000043F444020003CC9
:1001A3004040207C001C2040201C003C4030403C50
:1001B300004428102844001CA0A0A07C00446454E0
:1001C3004C44141414141414000000000000000024
:1001D3000000000000000000000000F80000000024
:1001E300000000333000000000100C06100C060065
:1001F300000000000000000040C07840C0784000CC
:10020300043F04043F040400007088FC083000002D
:10021300001820FF211E0000F008F000E018000085
:1002230000211C031E211E0000F00888700000003E
:100233001E2123241927211010160E000000000090
:100243000000000000000000000000E018040200AD
:10025300000000071820400000020418E00000001E
:100263000040201807000000404080F0804040001C
:100273000202010F01020200000000F00000000072
:100283000101011F01010100000000000000000046
:1002930080B07000000000000000000000000000BB
:1002A3000001010101010101000000000000000044
:1002B30000303000000000000000000080601804DF
:1002C300006018060100000000E010080810E000BC
:1002D300000F102020100F00001010F80000000085
:1002E3000020203F202000000070080808887000CC
:1002F300003028242221300000300888884830004C
:100303000018202020110E000000C02010F800006B
:1003130000070424243F240000F808888808080004
:100323000019212020110E0000E010888818000019
:10033300000F112020110E0000380808C8380800EB
:100343000000003F0000000000708808088870006B
:10035300001C222121221C0000E010080810E000EC
:100363000000312222110F00000000C0C000000075
:10037300000000303000000000000080000000009A
:100383000000806000000000000080402010080092
:10039300000102040810200040404040404040005B
:1003A3000404040404040400000810204080000036
:1003B3000020100804020100007048080808F0003B
:1003C3000000003036010000C030C828E810E0000B
:1003D3000718272423140B000000C038E000000096
:1003E300203C23020227382008F888888870000000
:1003F300203F202020110E00C030080808083800D4
:10040300071820202010080008F808080810E0004A
:10041300203F202020100F0008F88888E8081000EB
:10042300203F20202320180008F88888E8081000BF
:10043300203F200003000000C030080808380000F7
:1004430007182020221E020008F808000008F808F8
:10045300203F210101213F20000808F8080800007F
:100463000020203F2020000000000808F8080800B2
:10047300C08080807F00000008F888C0281808002A
:10048300203F20012638200008F808000000000063
:10049300203F20202020300008F8F800F8F808005A
:1004A300203F003F003F200008F830C00008F80854
:1004B300203F200007183F00E01008080810E00064
:1004C3000F10202020100F0008F808080808F0007B
:1004D300203F210101010000E01008080810E0009E
:1004E3000F18242438504F0008F888888888700033
:1004F300203F2000030C30200070880808083800D3
:100503000038202121221C00180808F808081800C8
:100513000000203F2000000008F808000008F80849
:10052300001F202020201F000878880000C83808FA
:10053300000007380E010000F80800F80008F80072
:10054300033C0700073C030008186880806818080C
:1005530020302C03032C30200838C800C83808008A
:100563000000203F2000000010080808C8380800D9
:100573002038262120201800000000FE020202007D
:100583000000007F40404000000C30C0000000002D
:10059300000000010638C00000020202FE00000055
:1005A300004040407F0000000000040202020400FB
:1005B3000000000000000000000000000000000038
:1005C3008080808080808080000202040000000020
:1005D3000000000000000000000080808080000018
:1005E3000019242222223F2008F800808000000006
:1005F300003F112020110E000000008080800000C9
:10060300000E112020201100000000808088F800D7
:10061300000E112020103F20000080808080000009
:10062300001F222222221300008080F0888888186D
:100633000020203F20200000000080808080800078
:10064300006B94949493600008F80080808000000D
:10065300203F210000203F200080989800000000E8
:100663000020203F20200000000000809898000018
:1006730000C08080807F000008F800008080800038
:10068300203F24022D302000000808F8000000005D
:100693000020203F20200000808080808080800018
:1006A300203F20003F20003F8080008080800000AA
:1006B300203F210000203F20000080808080000038
:1006C300001F202020201F00808000808000000069
:1006D30080FFA12020110E00000000808080800098
:1006E300000E112020A0FF80808080008080800089
:1006F30020203F21200001000000808080808000B6
:100703000033242424241900008080E0808000002A
:100713000000001F20200000808000000080800077
:10072300001F202020103F208080800000808080D8
:1007330000010E3008060100808000800080808068
:100743000F300C030C300F0000808000808080008D
:100753000020312E0E3120008080800000808080B8
:1007630080818E7018060100008080808080800068
:100773000021302C2221300000000000807C020286
:1007830000000000003F404000000000FF000000A8
:1007930000000000FF0000000002027C8000000057
:1007A3000040403F00000000000601010202040473
:1007B3000000000000000000F212FE12FE12F20020
:1007C3009058B4133058900000000000000000005F
:1007D3000000000000000000FF4A49484949FF00AB
:1007E300884629112947800000000000000000000E
:1007F300000000000000000084E45CC400F8084826
:10080300484808FF08098A000000000000000000B3
:100813000000000000000000003F10BF403F001E2A
:10082300925E20173846F10000000000000000002F
:1008330000000000000000000000FC242424FC252C
:100843002624FC24242404000000000000000000EF
:10085300000000000000000040308F80844C5525CC
:100863002525554C8080800000000000000000001A
:1008730000000000000000001010D0FF9050205036
:100883004C434C502040400000000000000000009A
:100893000000000000000000040300FF0041445872
:1008A300414E605847404000000000000000000037
:1008B30000000000000000001060028C00FE02F245
:1008C30002FE00F800FF000000000000000000002E
:1008D300000000000000000004047E018047300F88
:1008E30010270047807F0000000000000000000088
:1008F3000000000000000000000022322AA6A262CD
:100903002111098101000000000000000000000027
:100913000000000000000000004222130B42827E10
:1009230002020A122346000000000000000000003B
:1009330000000000000000002030AC63300088C8D5
:10094300A8998E88A8C88800000000000000000055
:1009530000000000000000002267221212804030D5
:100963000F00003F40407100000000000000000045
:0809730000000000000000007C
:10142800EF4E60157D087C07ED1DAA0470011C4A6B
:0914380070F6EF1F70EA1E80E758
:011441002288
:1012B300F583E5822CF582E43583F583E493FF7DA2
:0112C3000129
:1012C400ED6004D2A38002C2A3C2A4E4FEC2A0EFD4
:1012D40030E704D2A18002C2A1D2A0EF25E0FF0E24
:0712E400BE08EAD2A4D2A368
:0112EB0022E0
:10140800AC07ED24B0FFE4FD1212C4EC54F0C45450
:101418000F4410FF1212C4EC540F4401FF0212C40F
:1014C300E4FD7F8D1212C47F141212C47FAF021287
:0114D300C454
:1014D400E4FD7F8D1212C47F101212C47FAE02127B
:0114E400C443
:10137B00E4FCEC24B0FFE4FD1212C4E4FF1212C42F
:10138B007F101212C4E4FB7D01E4FF1212C40BBBED
:06139B0080F50CBC08DC2B
:0113A1002229
:06112F00AA07A905AF03A9
:10113500E4FCEF24E0FBEAD3947F4004E4FA0909D8
:10114500AF02AD01121408E4FC75F010EBA42CF508
:1011550082E435F0F583E58224CBF582E58334011D
:101165001212BD0CBC08E2AF02E904FD121408E43A
:10117500FC75F010EBA42CF582E435F0F583E582DF
:1011850024D3F582E58334011212BD0CBC08E2229A
:041472008F34A90505
:101476007F017E00AD0119ED6009AD347C00120DCF
:031486007280F180
:011489002240
:0810BB008F178D188A198B1A9A
:1010C300E4F51FF51DE51DC3951B505FC3E51B9597
:1010D3001D14FD7F0A121472AC19AD1ACFCDCFCEF9
:1010E300CCCE120D847C007D0A120D848D1EE51F6B
:1010F3007020E51B14FFE51DC39F5016E51E700FFE
:10110300E51CC313851DF0A42517FF7B20801375F1
:101113001F01E51CC313851DF0A42517FFE51E243D
:0B11230030FBAD1812112F051D809A43
:01112E00229E
:0A123A008F2B8D2C8B2D8A2E892F0F
:10124400E4F530AB2DAA2EA92F85308275830012C8
:101254000D45FB601DAD2CAF2B12112F7408252BEF
:10126400F52BD394784007E4F52B052C052C053099
:0212740080D127
:011276002255
:0411F700AA07A90595
:1011FB00E4F52B121408E4FC75F040EBA424BBF5CA
:10120B0082E5F034071212B3052B0CBC10EAAF02C7
:10121B00E904FD121408E4FC75F040EBA424DBF5A3
:0E122B0082E5F034071212B3052B0CBC10EA5A
:011239002292
:041195008F218B23F8
:10119900E4F528F529E5245407700BE52413131306
:1011A900541FF52A800AE524131313541F04F52A42
:1011B9008D2AE52AC395245034AD2AAF211214088B
:1011C900AC21ECC395235021AB25AA26A9270529D3
:1011D900E529AE287002052814F5828E83120D4583
:0D11E900FF7D011212C40C80D9052A80C5BB
:0111F60022D6
:100F0700D2A27F647E00121428C2A27F647E0012E0
:100F17001428D2A2E4FD7FAE1212C4E4FF1212C459
:100F27007F101212C47F401212C47F811212C47F35
:100F3700CF1212C47FA11212C47FC81212C47FA697
:100F47001212C47FA81212C47F3F1212C47FD31299
:100F570012C4E4FF1212C47FD51212C47F8012128A
:100F6700C47FD91212C47FF11212C47FDA1212C4DD
:100F77007F121212C47FDB1212C47F401212C47F89
:100F8700201212C47F021212C47F8D1212C47F1462
:100F97001212C47FA41212C47FA61212C47FAF120A
:100FA70012C47FAF1212C412137BE4FDFF021408B0
:10097B00020D30E86480F8E933E83360110460F06D
:10098B00ED33EC337009E8FCE9FDEAFEEBFF2204E2
:10099B0060DED3EB9FEA9EE99DE8C2E78CF0C2F7DD
:1009AB0095F0400CE8CCF8E9CDF9EACEFAEBCFFBA9
:1009BB00120CFB85D0F05804700320D5B3E80470FB
:1009CB00075002B2D5020D3A92D5EC0460F7E4CC95
:1009DB00C0E0C398F8603B94186008400DD0E0FB72
:1009EB00020D12E4FBFAC9FC8028E830E406E4C9E6
:1009FB00FBE4CAFCE830E305E4C9CACBFCE85407C6
:100A0B006010F8C3E913F9EA13FAEB13FBEC13FCD0
:100A1B00D8F130F52FC3E49CFCEF9BFFEE9AFEED73
:100A2B0099FDD0E0FBEF4E4D4C701222DB03020D13
:100A3B0037EC2CFCEF33FFEE33FEED33FDED30E7FF
:100A4B00EB020D12EF2BFFEE3AFEED39FDD0E0FB82
:100A5B0050130BBB0003020D3AED13FDEE13FEEF2B
:080A6B0013FFEC13FC020D1255
:100A7300EC4D6011E8497017ED33EC3304600DE47D
:100A8300FCFFFEFD22E933E8330470F8020D301257
:100A93000CFB58046009E4CC248150062850090259
:100AA3000D3A284003020D37C0E0EB4A7044B98089
:100AB30006D0E0FB020D26EF4E701CBD8008EBFF55
:100AC300EAFEE9FD80EBE98DF0A4FEE5F0020B5CA4
:100AD300E9CDF9EAFEEBFFEF89F0A4FCE5F0CE895E
:100AE300F0A42EFFE435F0CD89F0A42DFEE435F01B
:100AF3008067EF4E7005BD80D780C3EF8BF0A4AC49
:100B0300F0EE8BF0A42CFCE435F0F8EF8AF0A42C83
:100B1300E5F038FCE433CB8DF0A42CFCE5F03BF896
:100B2300EE8AF0A42CFCE5F038F8E433CF89F0A486
:100B33002CFCE5F038CF3400CE89F0A42FFFE5F08C
:100B43003EFEE433C98DF0A42EFEE5F039CD8AF0E4
:100B5300A42FFFE5F03EFEE43DFD33D0E0FB50075C
:100B63000BBB000F020D3AEC2CFCEF33FFEE33FE10
:060B7300ED33FD020D123E
:100B7900020D3AEC5D046005E859047003020D307A
:100B8900120CFB580460F6EC4860F2EC7004FDFEB0
:100B9900FF22C860DB2481C85009C398600250064F
:100BA900020D379850CAF582E9294B4A7005AB8284
:100BB900020D2675F0007C1A7880C3EF9BEE9AED42
:100BC90099400DC3EF9BFFEE9AFEED99FDE842F0C7
:100BD900DC23ACF0D0E0FFD0E0FED0E0FDAB82201A
:100BE900E7101BEB60BAEC2CFCEF33FFEE33FEEDA4
:100BF90033FD020D12E803F830E705C0F075F00087
:100C0900EF2FFFEE33FEED33FD40B830E7C280AA87
:100C190074F8CC6480CCC86480C8F582046043C38E
:100C2900EB9FF5F0EA9E42F0E99D42F0E89C45F021
:100C390060305018E5825FFFE582F42B5582FB5046
:100C4900210ABA001D09B90019088016E5825BFB63
:100C5900E582F42F5582FF50090EBE00050DBD0037
:100C6900010CC3EB9FF5F0EA9E42F0E99D42F0E8E2
:0D0C79009C45F06007CC4820E701B3EC2259
:100C860075F020800E75F010800575F0087D007EE9
:100C9600007F003392D530D503120E0FEC3340108F
:100CA600EF33FFEE33FEED33FDEC33FCD5F0ED22F2
:0E0CB600E5F0247EA2D513CC92E7CDCEFF222E
:100CC400EDD2E7CD33EC3392D524814006E4FFFE28
:100CD400FDFC22FCE4CFCECDCC24E0501174FF8087
:100CE400EDC3CC13CCCD13CDCE13CECF13CF047024
:070CF400F030D5DE020E0F07
:100CFB00E9D2E7C933E833F892D5EDD2E7CD33EC3F
:070D0B0033FC5002B2D522B7
:100D1200EC30E7100FBF000C0EBE00080DBD000442
:100D22000BEB6014A2D5EB13FCED92E7FD2274FFEE
:100D3200FCFDFEFF22E480F8A2D574FF13FC7D8047
:030D4200E480EF5B
:100FC300021043E493A3F8E493A34003F68001F2F1
:100FD30008DFF48029E493A3F85407240CC8C3332F
:100FE300C4540F4420C8834004F456800146F6DFFE
:100FF300E4800B0102040810204080901442E47E38
:10100300019360BCA3FF543F30E509541FFEE493F2
:10101300A360010ECF54C025E060A840B8E493A3B9
:10102300FAE493A3F8E493A3C8C582C8CAC583CAE4
:10103300F0A3C8C582C8CAC583CADFE9DEE780BE9C
:011459000092
:100D4500BB010CE58229F582E5833AF583E0225063
:100D550006E92582F8E622BBFE06E92582F8E222AD
:0D0D6500E58229F582E5833AF583E49322C7
:100D7200EF8DF0A4A8F0CF8CF0A428CE8DF0A42E95
:020D8200FE224F
:100D8400BC000BBE0029EF8DF084FFADF022E4CC53
:100D9400F875F008EF2FFFEE33FEEC33FCEE9DEC1C
:100DA400984005FCEE9DFE0FD5F0E9E4CEFD22ED62
:100DB400F8F5F0EE8420D21CFEADF075F008EF2FAC
:100DC400FFED33FD4007985006D5F0F222C398FD9D
:050DD4000FD5F0EA223A
:100DD900C2D5EC30E709B2D5E4C39DFDE49CFCEE35
:100DE90030E715B2D5E4C39FFFE49EFE120D84C31C
:100DF900E49DFDE49CFC8003120D8430D507C3E417
:060E09009FFFE49EFE22A3
:0E0E0F00C3E49FFFE49EFEE49DFDE49CFC22F4
:00000001FF
