:030000000205698D
:0C056900787FE4F6D8FD7581230205B010
:0D08EE00007F087E017DF3DDFEDEFCDFFAF9
:0108FB0022DA
:04078A007F057E0069
:10078E00E4F51EF51F8E1E8F1FD3E51F9400E51E88
:10079E00940040117FFF7E00120885E51F151F7023
:0507AE00E8151E80E4C7
:0107B3002223
:10088500E4FDFCC3ED9FEC9E5008000DBD00010C7E
:0208950080F1F0
:01089700223E
:10068900E4F580D2A77F05FE12078E7F381208CEC7
:1006990012078A7F381208CE12078A7F381208CECD
:1006A9007F381208CE7F081208CE7F011208CE7F4C
:0906B900061208CE7F0C0208CEE7
:05091B00C2A6C2A522E6
:05092000D2A6C2A522D1
:05092500C2A6D2A522CC
:1008CE008F1E1208FC40FB851E8012091B02092A8E
:1008DE008F1D1208FC40FB851D8012092502092A76
:05092A00C2A7D2A722C4
:100898008F1DED6003431D40431D8012078AAF1D65
:0308A8000208CE75
:0A0909008B1C120898AF1C0208DED8
:1006C2008F178D188B198A1A891BAB19AA1AA91BA5
:1006D2001203CD602312078AAF170517AB19AA1AA6
:1006E200A91B1203CDFBAD181209097401251BF5D4
:0906F2001BE4351AF51A80D2222E
:0D08FC007580FF12092012092AE5803322C1
:10075E008F218D228B2312086FAF2112064D2000A0
:10076E0002C322AF2212064D200002C322AF231273
:0C077E00064D200002C3221208BDD32249
:10081F008F178D1812086FAF1712064D200002C3E5
:10082F0022AF1812064D200002C3221208BDD32298
:0207FD008F1754
:1007FF0012086FE51704FF12064D2000037F002239
:0F080F001207D98F18D2011208571208BDAF185F
:01081E0022B7
:1007B400202057656C636F6D652020504820200011
:1007C400446574656374696F6E2073797374656DC1
:0507D4000050483D004B
:10083F0002100000040C0000000005120000000070
:07084F000004080000000096
:1006FB007D407F9012081F7F901207FD7510008FB1
:10070B0011AC10AD11EC120313E4FBFA79A0784095
:10071B001200FBE4FBFA797F78431202048F0B8EF5
:06072B000A8D098C082272
:10047F007F4E7E627DBC7CC0AB0BAA0AA909A8087F
:10048F001200FB7B7F7A6A79AD784112000A8F0FD9
:10049F008E0E8D0D8C0CE4FFFEFDFCAB0FAA0EA98A
:1004AF000DA80C1202A160025009E4F50FF50EF52C
:1004BF000DF50CE4FFFE7D607C41AB0FAA0EA90D7C
:1004CF00A80C1202A1400BE4F50FF50E750D607527
:1004DF000C41E4FFFE7DC87C42AB0FAA0EA90DA80C
:1004EF000C1200FB12034CAB07AA067C037DE8122B
:1004FF0003E6EF2430F5127C037DE8AF03AE021262
:10050F0003E67E007F64CFCDCFCECCCE1203E6EFD5
:10051F002430F51375142EE4FFFE7DC87C42AB0F1B
:10052F00AA0EA90DA80C1200FB12034CAB07AA06CA
:10053F007C007D641203E67E007F0ACFCDCFCECC48
:10054F00CE1203E6EF2430F5157C007D0AAF03AE23
:0A055F00021203E6ED2430F5162227
:10073100AB12E4FD7F03120909AB13E4FD7F041240
:100741000909AB14E4FD7F05120909AB15E4FD7F2E
:0D07510006120909AB16E4FD7F0702090935
:1008AB00759850758920758DFD758BFDE4F587D294
:0208BB008E228B
:080913008F993099FDC2992271
:1005F5001206891208AB7BFF7A0779B4E4FDFF1276
:1006050006C27BFF7A0779C47D01E4FF1206C21298
:1006150008EE7F011208CE7BFF7A0779D5E4FDFF4E
:100625001206C21206FB12047F120731E4FDFC74A8
:10063500122DF8E6FF1209130DBD00010CED64053E
:080645004C70EC1208EE80DBA2
:10086F00D29700D2960000000000C297000000004F
:06087F0000C296000022F9
:1008BD00C29700D2960000000000D2970000000001
:0108CD002208
:10064D00E4FEEFA806088002C333D8FC30E704D2DD
:10065D00978002C29700D2960000000000C2960E4D
:10066D00BE08DF0000D2970000D296000000309740
:0B067D0004C2008002D200C296000000
:01068800224F
:1007D900E4FFD297FE00C2960000000000D2960006
:1007E90000EF25E0FF3097010F00000EBE08E6C2BA
:0307F90096000067
:0107FC0022DA
:10085700200104C2978002D297000000D2960000C0
:08086700000000C2960000220F
:100003000203B8E86480F8E933E83360110460F070
:10001300ED33EC337009E8FCE9FDEAFEEBFF220463
:1000230060DED3EB9FEA9EE99DE8C2E78CF0C2F75E
:1000330095F0400CE8CCF8E9CDF9EACEFAEBCFFB2A
:1000430012038385D0F05804700320D5B3E80470FD
:10005300075002B2D50203C292D5EC0460F7E4CC98
:10006300C0E0C398F8603B94186008400DD0E0FBF3
:1000730002039AE4FBFAC9FC8028E830E406E4C9E9
:10008300FBE4CAFCE830E305E4C9CACBFCE8540747
:100093006010F8C3E913F9EA13FAEB13FBEC13FC52
:1000A300D8F130F52FC3E49CFCEF9BFFEE9AFEEDF5
:1000B30099FDD0E0FBEF4E4D4C701222DB0302039F
:1000C300BFEC2CFCEF33FFEE33FEED33FDED30E7F9
:1000D300EB02039AEF2BFFEE3AFEED39FDD0E0FB86
:1000E30050130BBB00030203C2ED13FDEE13FEEF2F
:0800F30013FFEC13FC02039A59
:1000FB00EC4D6011E8497017ED33EC3304600DE4FF
:10010B00FCFFFEFD22E933E8330470F80203B8125A
:10011B00038358046009E4CC24815006285009025B
:10012B0003C22840030203BFC0E0EB4A7044B9800E
:10013B0006D0E0FB0203AEEF4E701CBD8008EBFF58
:10014B00EAFEE9FD80EBE98DF0A4FEE5F00201E4A7
:10015B00E9CDF9EAFEEBFFEF89F0A4FCE5F0CE89DF
:10016B00F0A42EFFE435F0CD89F0A42DFEE435F09C
:10017B008067EF4E7005BD80D780C3EF8BF0A4ACCA
:10018B00F0EE8BF0A42CFCE435F0F8EF8AF0A42C05
:10019B00E5F038FCE433CB8DF0A42CFCE5F03BF818
:1001AB00EE8AF0A42CFCE5F038F8E433CF89F0A408
:1001BB002CFCE5F038CF3400CE89F0A42FFFE5F00E
:1001CB003EFEE433C98DF0A42EFEE5F039CD8AF066
:1001DB00A42FFFE5F03EFEE43DFD33D0E0FB5007DE
:1001EB000BBB000F0203C2EC2CFCEF33FFEE33FE14
:0601FB00ED33FD02039A42
:100201000203C2EC5D046005E8590470030203B8FF
:10021100120383580460F6EC4860F2EC7004FDFEB2
:10022100FF22C860DB2481C85009C39860025006D0
:100231000203BF9850CAF582E9294B4A7005AB8287
:100241000203AE75F0007C1A7880C3EF9BEE9AED45
:1002510099400DC3EF9BFFEE9AFEED99FDE842F048
:10026100DC23ACF0D0E0FFD0E0FED0E0FDAB82209B
:10027100E7101BEB60BAEC2CFCEF33FFEE33FEED25
:1002810033FD02039AE803F830E705C0F075F0008A
:10029100EF2FFFEE33FEED33FD40B830E7C280AA09
:1002A10074F8CC6480CCC86480C8F582046043C310
:1002B100EB9FF5F0EA9E42F0E99D42F0E89C45F0A3
:1002C10060305018E5825FFFE582F42B5582FB50C8
:1002D100210ABA001D09B90019088016E5825BFBE5
:1002E100E582F42F5582FF50090EBE00050DBD00B9
:1002F100010CC3EB9FF5F0EA9E42F0E99D42F0E864
:0D0301009C45F06007CC4820E701B3EC22DA
:10030E0075F020800E75F010800575F0087D007E6A
:10031E00007F003392D530D50312041CEC3340100D
:10032E00EF33FFEE33FEED33FDEC33FCD5F0ED2273
:0E033E00E5F0247EA2D513CC92E7CDCEFF22AF
:10034C00EDD2E7CD33EC3392D524814006E4FFFEA9
:10035C00FDFC22FCE4CFCECDCC24E0501174FF8008
:10036C00EDC3CC13CCCD13CDCE13CECF13CF0470A5
:07037C00F030D5DE02041C85
:10038300E9D2E7C933E833F892D5EDD2E7CD33ECC0
:0703930033FC5002B2D52239
:10039A00EC30E7100FBF000C0EBE00080DBD0004C4
:1003AA000BEB6014A2D5EB13FCED92E7FD2274FF70
:1003BA00FCFDFEFF22E480F8A2D574FF13FC7D80C9
:0303CA00E480EFDD
:100575000205F5E493A3F8E493A34003F68001F2A2
:1005850008DFF48029E493A3F85407240CC8C33387
:10059500C4540F4420C8834004F456800146F6DF56
:1005A500E4800B010204081020408090083FE47E9F
:1005B500019360BCA3FF543F30E509541FFEE4934B
:1005C500A360010ECF54C025E060A840B8E493A312
:1005D500FAE493A3F8E493A3C8C582C8CAC583CA3D
:1005E500F0A3C8C582C8CAC583CADFE9DEE780BEF5
:0108560000A1
:1003CD00BB010689828A83E0225002E722BBFE022E
:0903DD00E32289828A83E4932261
:1003E600C2D5EC30E709B2D5E4C39DFDE49CFCEE32
:1003F60030E715B2D5E4C39FFFE49EFE12042AC37C
:10040600E49DFDE49CFC800312042A30D507C3E476
:060416009FFFE49EFE22A0
:0E041C00C3E49FFFE49EFEE49DFDE49CFC22F1
:10042A00BC000BBE0029EF8DF084FFADF022E4CCB6
:10043A00F875F008EF2FFFEE33FEEC33FCEE9DEC7F
:10044A00984005FCEE9DFE0FD5F0E9E4CEFD22EDC5
:10045A00F8F5F0EE8420D21CFEADF075F008EF2F0F
:10046A00FFED33FD4007985006D5F0F222C398FD00
:05047A000FD5F0EA229D
:00000001FF
