:020000040800F2
:10000000500400200101000815140008171400080E
:100010001B1400081F14000823140008000000002F
:10002000000000000000000000000000271400088D
:1000300029140008000000002B1400082D140008EB
:100040001B0100081B0100081B0100081B01000820
:100050001B0100081B0100081B0100081B01000810
:100060001B0100081B0100081B0100081B01000800
:100070001B0100081B0100081B0100081B010008F0
:100080001B0100081B0100081B0100081B010008E0
:100090001B0100081B0100081B0100081B010008D0
:1000A0001B0100081B0100081B0100081B010008C0
:1000B0001B0100081B0100081B0100081B010008B0
:1000C0001B0100081B0100081B0100081B010008A0
:1000D0001B0100082F1400084F1400081B01000822
:1000E0001B0100081B0100081B010008DFF80CD0F1
:1000F00001F0DCFE00480047E9120008500400202F
:100100000648804706480047FEE7FEE7FEE7FEE7B1
:10011000FEE7FEE7FEE7FEE7FEE7FEE70302000874
:10012000ED0000080CB50020019000906C480068BC
:1001300040F480306A49086000BF6948006800F4F4
:10014000003000900198401C0190009818B9019867
:10015000B0F5A06FF1D16248006800F4003010B132
:100160000120009001E0002000900098012843D178
:100170005C48006840F010005A4908600846006872
:1001800020F0030008600846006840F002000860A4
:1001900053484068524948600846406848600846ED
:1001A000406840F4806048600846406820F47C1055
:1001B00048600846406840F4E81048600846006817
:1001C00040F08070086000BF4548006800F0007093
:1001D0000028F9D04248406820F0030040494860B8
:1001E0000846406840F00200486000BF3C48406854
:1001F00000F00C000828F9D10CBD10B5FFF792FFF4
:1002000010BD10B53648006840F001003449086060
:10021000084640683449084031494860084600684B
:10022000324908402E4908600846006820F48020C2
:1002300008600846406820F4FE0048604FF41F0044
:100240008860FFF7DAFF4FF000602949086010BDB1
:1002500010B5002100200022214B5B6803F00C0147
:1002600021B1042906D0082928D107E0214B224CCE
:10027000236027E01F4B204C236023E0184B5B6872
:1002800003F47010164B5B6803F48032022303EB17
:10029000904022B9194B4343174C23600DE0104B9B
:1002A0005B6803F4003323B1144B4343124C2360C7
:1002B00003E0104B4343104C236003E00D4B0E4C06
:1002C000236000BF00BF064B5B68C3F303130C4CF5
:1002D000E15C094B1B68CB40074C236010BD00005C
:1002E00000100240002002400000FFF8FFFFF6FE71
:1002F00008ED00E000127A000000002000093D0037
:100300000400002010B50446CC48844208D10121E5
:10031000042000F02DFB0021042000F029FB46E022
:10032000C748844208D10121082000F021FB0021A8
:10033000082000F01DFB3AE0C248844208D10121A8
:10034000102000F015FB0021102000F011FB2EE022
:10035000BD48844208D10121202000F009FB002182
:10036000202000F005FB22E0B848844208D101219A
:10037000402000F0FDFA0021402000F0F9FA16E0DC
:10038000B348844208D10121802000F0F1FA002115
:10039000802000F0EDFA0AE0AE48844207D1012146
:1003A000801500F0E5FA0021A01500F0E1FA10BD7B
:1003B00010B50121084600F0DBFA0021012000F011
:1003C000D7FA10BD2DE9F041024600250026002095
:1003D00000230024002791F803C00CF00F0591F8CA
:1003E00003C00CF0100CBCF1000F03D091F802C058
:1003F0004CEA050591F800C0BCF1000F31D014683B
:1004000000202BE04FF0010C0CFA00F3B1F800C013
:100410000CEA03069E4220D183004FF00F0C0CFA29
:1004200003F7BC4305FA03FC4CEA040491F803C04B
:10043000BCF1280F06D14FF0010C0CFA00FCC2F8F9
:1004400014C00AE091F803C0BCF1480F05D14FF089
:10045000010C0CFA00FCC2F810C0401C0828D1D3D3
:100460001460B1F800C0BCF1FF0F34DD5468002007
:100470002EE000F1080C4FF0010808FA0CF3B1F877
:1004800000C00CEA03069E4221D183004FF00F0CFE
:100490000CFA03F7BC4305FA03FC4CEA040491F898
:1004A00003C0BCF1280F05D100F1080C08FA0CF8C4
:1004B000C2F8148091F803C0BCF1480F07D100F1D5
:1004C000080C4FF0010808FA0CF8C2F81080401C24
:1004D0000828CED35460BDE8F0814FF6FF7101804B
:1004E000022181700421C170704702460020936888
:1004F0000B400BB1012000E00020704701468868E6
:1005000080B2704702460020D3680B400BB1012037
:1005100000E0002070470146C86880B27047016162
:100520007047416170470AB1016100E04161704765
:10053000C16070474FF480320A43826181618261F9
:1005400082698269704702460020434B18684FF663
:100550008073184040EA021008433F4B1860704710
:100560003E49C8617047F0B50A46002300240021C7
:10057000002500F00046B6F1004F02D1364EF16979
:1005800001E0354E7168C0F3034583B200F44016B4
:10059000B6F5401F08D121F070612F4E766826F025
:1005A00070662D4F7E6012E000F48016B6F5801F55
:1005B00006D1032606FA05F4A14341F0706106E076
:1005C000460D360103FA06F6B14341F0706122B1DF
:1005D000460D360103FA06F6314300F00046B6F147
:1005E000004F02D11C4EF16101E01B4E7160F0BD65
:1005F00030B500228B071C0F0F2303FA04F2164BB1
:1006000008338C1053F824309343134C08348D1066
:1006100044F8253023468C1053F824308C07240FDF
:1006200000FA04F423430C4C08348D1044F82530B0
:1006300030BD0A49DC310860704700000008014005
:10064000000C01400010014000140140001801405E
:10065000001C014000200140000001400000204239
:10066000DF48006840F00100DD4908600846406846
:10067000DC490840DA49486008460068DA49084021
:10068000D74908600846006820F4802008600846C2
:10069000406820F4FE0048604FF41F0088607047F7
:1006A000CF49096821F48031CD4A116011460968AB
:1006B00021F480211160B0F5803F03D0B0F5802F88
:1006C0000ED106E0C649096841F48031C44A116080
:1006D00007E0C349096841F4A021C14A116000E064
:1006E00000BF00BF704710B5014600220023002064
:1006F0004A11012A02D1BA4C236806E0022A02D12B
:10070000B74C236A01E0B64C636A01F01F02012472
:1007100094401C400CB1012000E0002010BD38B511
:10072000002000900024002500BF3120FFF7DBFFF0
:1007300005460098401C00900098B0F5A06F01D0CD
:10074000002DF2D03120FFF7CEFF08B1012400E0E8
:100750000024204638BD01460020A14A106820F040
:10076000F80040EAC10010607047A0490860704777
:10077000024600209A4B586820F47C1042EA01039C
:100780001843974B58607047984908667047014670
:100790000020934A506820F00300084350607047DF
:1007A0008F48406800F00C007047014600208C4ADA
:1007B000506820F0F0000843506070470146002068
:1007C000874A506820F4E060084350607047014653
:1007D0000020834A506820F4605040EAC100506015
:1007E000704729B17E4A527A02437D4B5A7204E027
:1007F0007B4A527A82437A4B5A7270477B49D8318E
:100800000860704701460020754A506820F4404057
:100810000843506070470021714A20321170704ABD
:1008200082F82010012802D004280AD104E0012116
:100830006B4A2032117005E00521694A203211709F
:1008400000E000BF00BF7047694908607047644915
:10085000096A0143624A1162704765494439086078
:10086000704730B500210022002400235C4D6D68E4
:1008700005F00C0121B1042905D0082923D105E098
:100880005C4D056022E05B4D05601FE0544D6D68D6
:1008900005F47012524D6D6805F48034022505EBA5
:1008A00092421CB9544D554305600BE04C4D6D68A8
:1008B00005F400351DB1504D5543056002E04D4D26
:1008C0005543056002E04B4D056000BF00BF444D3D
:1008D0006D6805F0F0010909484D6B5C0568DD4065
:1008E00045603F4D6D6805F4E061090A434D6B5C5E
:1008F0004568DD4085603A4D6D6805F46051C90A70
:100900003E4D6B5C4568DD40C560354D6D6805F456
:100910004041890B3A4D6B5CC568B5FBF3F5056149
:1009200030BD29B12E4A526902432D4B5A6104E071
:100930002B4A526982432A4B5A61704729B1284A8F
:1009400092690243264B9A6104E0254A92698243E8
:10095000234B9A61704729B1214AD2690243204B47
:10096000DA6104E01E4AD26982431D4BDA617047A6
:1009700029B11B4AD2680243194BDA6004E0184AD5
:10098000D2688243164BDA60704729B1144A126963
:100990000243134B1A6104E0114A12698243104B5F
:1009A0001A61704712494039086070470F49C8649E
:1009B00070470B49C87170470948406A40F0807021
:1009C00007494862704701460020054A92680A407C
:1009D0000AB1012000E00020704701498872704789
:1009E000001002400000FFF8FFFFF6FE0000424248
:1009F0008004424200127A0000093D0014000020E9
:100A00002400002010B50446BE48844208D10121CC
:100A10008014FFF7ADFF0021A014FFF7A9FF16E037
:100A2000B948844208D101210014FFF7AEFF00212C
:100A30002014FFF7AAFF0AE0B448844207D101213D
:100A4000C013FFF7A2FF0021E013FFF79EFF10BDC8
:100A500010B50022028802F441520B884C882343CF
:100A60008C882343CC8823430C8923434C8923431C
:100A70008C892343CC8923431A430280838B4FF212
:100A8000FF74234083830B8A038210BD2DE9F04F4E
:100A900085B005460C464FF0000902274FF00008CC
:100AA0004FF0010B0026B246A88B4FF240010840E0
:100AB000A88302202884B5F81C90A068022801D1E0
:100AC00000BF38E0A08810B94FF0010B01E04FF0F3
:100AD000020B8D48854200D100E000BF6846FFF759
:100AE000C0FEDDF800A0E088B0F5007F0AD14FEA33
:100AF0001A2000EB80004000A168B0FBF1F0401D1F
:100B000086B20BE04FEA4B10BAFBF0F000EB80002E
:100B10004000A168B0FBF1F0401D86B20A20B6FB90
:100B2000F0F606F00108A6EB0800C0F34F074FF6F9
:100B3000FF7000EA0828022F01DBFF2F02DD0227E9
:100B40004FF00008E08840EA080038432884A08875
:100B5000A1890843618808432188084340F4006064
:100B600040EA0909A5F81C9005B0BDE8F08F002106
:100B7000018041808180C180018141818181C18169
:100B80000721018270470021018041808180C1805E
:100B90000221816000218181704721B1028842F0E9
:100BA0004002028004E002884FF6BF731A400280C0
:100BB000704721B1828B42F48062828304E0828B91
:100BC0004FF6FF331A408283704730B5002400236C
:100BD0000C110125A540ABB21AB185881D43858053
:100BE00002E085889D43858030BD1AB183880B4320
:100BF000838002E083888B438380704781817047C4
:100C00000146888970474FF6FF62914204D00288FE
:100C100042F48072028004E002884FF6FF631A40BB
:100C20000280704721B1828842F00402828004E091
:100C300082884FF6FB731A408280704702884FF219
:100C4000FF731A40028002880A43028070470188BD
:100C500041F480510180704721B1028842F4005272
:100C6000028004E002884DF6FF731A40028070474C
:100C700002460020012901D0108B00E0908A7047C5
:100C80000146088A7047B1F5804F04D1028842F4CA
:100C90008042028004E002884BF6FF731A40028013
:100CA00070470246002013890B400BB1012000E081
:100CB00000207047CA4302817047F0B50246002009
:100CC00000240023002501F00F070126BE40B4B226
:100CD0000B1101269E40B3B2968806EA03051689D9
:100CE000264016B10DB1012000E00020F0BD10B586
:100CF000002201F00F040123A3409AB2D3430381E1
:100D000010BD00000030014000380040003C0040B1
:100D100010B50446FB48844209D101218803FFF73E
:100D200027FE00214FF48040FFF722FE32E0F64814
:100D3000844209D101214804FFF727FE00214FF426
:100D40000030FFF722FE25E0F048844209D101215E
:100D50008804FFF71AFE00214FF48020FFF715FEEC
:100D600018E0EB48844209D10121C804FFF70DFEC9
:100D700000214FF40020FFF708FE0BE0E548844215
:100D800008D101210805FFF700FE00214FF4801073
:100D9000FFF7FBFD10BD2DE9F04786B005460E4676
:100DA0000024A24600BFA1460027B08900B100BFC1
:100DB0002F462C8A4CF6FF700440F08804432C82A6
:100DC000AC894EF6F3100440B0883189084371892C
:100DD00008430443AC81AC8A4FF6FF400440B0891D
:100DE0000443AC8201A8FFF73CFDC648874202D10C
:100DF000DDF810A001E0DDF80CA0A88900F40040A7
:100E000040B10AEBCA0000EB0A1031684900B0FBA0
:100E1000F1F807E00AEBCA0000EB0A10316889001C
:100E2000B0FBF1F86420B8FBF0F004012009642164
:100E300001FB1089A88900F4004040B1322000EB8A
:100E4000C900B0FBF1F000F00700044308E03220D5
:100E500000EB09106421B0FBF1F000F00F00044337
:100E60002C8106B0BDE8F0874FF4165101600021D7
:100E70008180C18001810C214181002181817047E5
:100E800010B502460020108A4FF2FF0318400B886D
:100E90004C8823438C882343CC88234318431082F7
:100EA00010BD0021018041808180C180704721B147
:100EB000828942F40052828104E082894DF6FF73F8
:100EC0001A4082817047F0B50346002400260025B1
:100ED000002040F66A17B94200D100BF1846C1F39E
:100EE000421401F01F06012707FA06F5012C01D173
:100EF0000C3004E0022C01D1103000E014301AB1A3
:100F000007682F43076002E00768AF430760F0BD42
:100F10001AB1838A0B43838202E0838A8B438382E4
:100F20007047028A4FF6F0731A400282028A0A431F
:100F30000282704782894FF2FF731A408281828950
:100F40000A438281704721B1828942F00202828184
:100F500004E082894FF6FD731A4082817047028A4D
:100F60004FF6DF731A400282028A0A4302827047F8
:100F700021B1028A42F48042028204E0028A4BF6E6
:100F8000FF731A4002827047C1F3080282807047E3
:100F900001468888C0F308007047818941F001014B
:100FA00081817047028BD2B20283028B42EA012216
:100FB00002837047028B02F47F420283028B0A4352
:100FC0000283704721B1828A42F02002828204E0CB
:100FD000828A4FF6DF731A408282704721B1828A7B
:100FE00042F01002828204E0828A4FF6EF731A40C8
:100FF0008282704721B1828A42F00802828204E034
:10100000828A4FF6F7731A408282704721B1828933
:1010100042F40042828103E08289C2F30E0282819F
:10102000704721B1828A42F40062828204E0828A9F
:101030004FF2FF731A4082827047828A4FF6FB7329
:101040001A408282828A0A438282704721B1828A50
:1010500042F00202828204E0828A4FF6FD731A4057
:101060008282704702460020B1F5007F00D100BFA8
:1010700013880B400BB1012000E00020704701F401
:101080000072B2F5007F00D100BFCA4302807047F2
:1010900070B50246002400230025002040F66A16A1
:1010A000B14200D100BFC1F3421501F01F03012678
:1010B00006FA03F3012D02D19689334006E0022D92
:1010C00002D1168A334001E0968A33400C12012681
:1010D00006FA04F41688344013B10CB1012000E084
:1010E000002070BD10B50022002340F66A14A14212
:1010F00000D100BF0A1201249440A3B2DC43048053
:1011000010BD00000038014000440040004800408D
:10111000004C00400050004008B5012141F21D0084
:10112000FFF70CFC01217C48FFF71DFA4FF4FF602C
:10113000ADF8000010208DF8030001208DF80200AA
:1011400069467648FFF73EF94FF41840ADF80000C5
:1011500010208DF8030001208DF8020069467048C8
:10116000FFF730F90220ADF8000048208DF80300A9
:1011700003208DF8020069466948FFF723F908BD8E
:101180002DE9F047012000F0A9F9012000F0FCF959
:10119000644908800846008800F04CFD8046002223
:1011A000614B00F066FC06460022604B00F0D3FC69
:1011B000044600F0A9FD5E4908600846006800F09A
:1011C0005FFD06465B4A5C4B00F053FC04465B4AFD
:1011D0005B4B00F0A7FB804600F096FD5949086084
:1011E0000846006800F04CFD04460022134600F05B
:1011F0005BFD02D80020534908605248006800F0A7
:101200003FFD04460022504B00F066FD02D84F48D7
:101210004C4908604E494B48006800F051FB0446B9
:1012200000F015FD4FF47A7190FBF1F03030494930
:10123000087047494348006800F042FB044600F04C
:1012400006FD4FF47A7190FBF1F201FB120064216C
:1012500090FBF1F030303F4948702E2088703C49B7
:101260003848006800F02CFB044600F0F0FC6421D4
:1012700090FBF1F201FB12000A2190FBF1F03030FB
:101280003449C87032492F48006800F019FB044601
:1012900000F0DDFC0A2190FBF1F201FB120030307E
:1012A0002C490871BDE8F08710B52A480278002162
:1012B000032000F0B2FA274842780021042000F011
:1012C000ACFA244882780021052000F0A6FA2148D3
:1012D000C2780021062000F0A0FA1E480279002101
:1012E000072000F09AFA10BDFFF716FF00F038F85B
:1012F00000F0B3FA00F0C9F917A20021084600F087
:1013000098FA07E0FFF73CFFFFF7CEFF114913A063
:1013100000F0EEFDF6E7000000023000000C014096
:10132000000801403C00002000001440E0FFEF40B6
:10133000400000203F355EBA498C17C05A643BDF3D
:101340004FAD35403400002000002C4000006041CB
:101350000000C8424400002050483A0025730000B5
:1013600000B585B0012144F20400FFF7E7FA4FF41D
:101370000070ADF8100018208DF8130003208DF8D0
:10138000120004A92148FFF71DF84FF48060ADF862
:10139000100004208DF8130004A91C48FFF712F870
:1013A0004FF4E13000900020ADF80400ADF80600E5
:1013B000ADF80800ADF80C000C20ADF80A00694645
:1013C0001348FFF7E8FC01211148FFF770FD05B055
:1013D00000BD70B504460D46E1B20D48FFF7D4FDDF
:1013E00000BF40210A48FFF73DFE0028F9D0204603
:1013F00070BD10B5044600BF20210548FFF732FE3E
:101400000028F9D00248FFF7C3FD10BD00080140D5
:1014100000380140704700BFFEE700BFFEE700BF95
:10142000FEE700BFFEE7704770477047704710B592
:1014300040F225510748FFF72BFE38B10548FFF76A
:10144000A7FDC4B2214604A000F052FD10BD7047B4
:1014500070470000003801402563000001B502E03C
:101460000098401E009000980028F9D108BD08B5EA
:101470000220ADF8000048208DF8030003208DF80D
:10148000020069468548FEF79DFF08BD10B50121A1
:1014900041F20D00FFF752FA10BD10B504460121CC
:1014A0007E48FFF73EF800BF02217D48FFF7F9FBB9
:1014B0000028F9D021467A48FFF7A0FB00BF0121A0
:1014C0007748FFF7EEFB0028F9D001217348FFF7BA
:1014D00026F87348FFF794FBC0B210BD70B5044600
:1014E000002504E0FF20FFF7D8FF681CC5B2642D7B
:1014F000F8DB012C1BD12020FFF7CFFF4FF47A70CF
:10150000FFF7ACFF0220FFF7C8FF4FF47A70FFF738
:10151000A5FF1020FFF7C1FF4FF47A70FFF79EFF81
:101520004420FFF7BAFF5F48FFF798FF1AE0212039
:10153000FFF7B3FF4FF47A70FFF790FF0220FFF739
:10154000ACFF4FF47A70FFF789FF1120FFF7A5FF7A
:101550004FF47A70FFF782FF4420FFF79EFF514857
:10156000FFF77CFF70BD70B5002600240025FF202A
:10157000FFF793FF04462402FF20FFF78EFF064685
:1015800044EA0605284670BD70B5044600260025CD
:1015900026E0012C10D13820FFF77FFF00BF00218B
:1015A0003E48FEF7A2FF0028F9D1642000F08AF837
:1015B000FFF7D9FF064611E0022C0FD13920FFF7C3
:1015C0006CFF00BF00213548FEF78FFF0028F9D1DE
:1015D000642000F077F8FFF7C6FF0646681CC5B226
:1015E000022DD6DBB0B270BD00B587B0E020ADF8FB
:1015F000040018208DF8070003208DF8060001A9CB
:101600002648FEF7DFFE0120ADF8040018208DF813
:10161000070003208DF8060001A92048FEF7D2FE3E
:1016200001211E48FEF77BFF02211C48FEF777FFD1
:1016300000211B48FFF7B1FA0020ADF808004FF475
:101640008270ADF80A000020ADF80C000220ADF861
:101650000E000120ADF810004002ADF81200282065
:10166000ADF814000020ADF816000720ADF8180002
:1016700002A90B48FFF7ECF901210948FFF78DFAA1
:10168000FF20FFF70AFF07B000BD10B5FFF7FEFE11
:10169000FFF7EDFEFFF7A8FF10BD000000080140B6
:1016A0000030014040420F0000BF062100E000BFB3
:1016B0000A1EA1F1010399B2F9D1421E92B2101E85
:1016C000F3D1704710B5044600BFFA20FFF7ECFFD6
:1016D000FA20FFF7E9FFFA20FFF7E6FFFA20FFF70D
:1016E000E3FF601E80B2041EEFD110BD06E00821AA
:1016F00000BF0A1EA1F10103D9B2FAD1021EA0F166
:101700000100F4D1704710B5044603E040F24C40AC
:10171000FFF7ECFF201EA4F10104F7D110BD10B5B6
:1017200004464FF400416448FEF7FBFE0120FFF73A
:10173000DDFF4FF400616048FEF7F3FE0120FFF784
:10174000D5FF4FF480515C48FEF7EBFE4FF49670E6
:10175000FFF7CCFFE000594908604FF49670FFF79F
:10176000C5FF4FF400415448FEF7D9FE4FF4967080
:10177000FFF7BCFF4FF400414F48FEF7D2FE4FF495
:101780009670FFF7B3FF4FF400414B48FEF7C9FED8
:1017900010BD10B504460A20FFF7B5FF4FF4004115
:1017A0004548FEF7BEFE0120FFF7A0FF4FF40061A1
:1017B0004148FEF7B4FE0120FFF798FF4FF4805137
:1017C0003D48FEF7AEFE0120FFF790FFE0003B49E9
:1017D00008600120FFF78AFF4FF400413648FEF70A
:1017E0009EFE0120FFF78FFF4FF400413248FEF7C5
:1017F00098FE10BD10B50120FFF791FF10BD70B528
:1018000004460D4625B144F0C000FFF788FF03E011
:1018100044F08000FFF783FF70BD70B505460E46AB
:10182000144631462846FFF7EAFF2046FFF7B1FF8E
:1018300070BD70B505460E46144631462846FFF782
:10184000DEFF06E02078FFF7A4FF641C0120FFF70D
:101850005AFF20780028F5D170BD10B53220FFF76F
:1018600052FF3820FFF75BFF0A20FFF74CFF3820BC
:10187000FFF755FF0A20FFF746FF3820FFF74FFF1D
:101880000A20FFF740FF0820FFF749FF0A20FFF773
:101890003AFF0120FFF743FF0A20FFF734FF06203D
:1018A000FFF73DFF0A20FFF72EFF0C20FFF737FF61
:1018B0000A20FFF728FF10BD000801400C0C014072
:1018C00080EA010210B502F00043400022D04A0035
:1018D0001FD0010E01EB1261C0F35600C2F3560295
:1018E00040F4000042F40002A0FB022000047F3913
:1018F000140400D0401C50EA124001D44000491E9C
:10190000C2B20C0604EBD010401C4008802A02D062
:1019100003E0002010BD20F00100002900DA0020C3
:10192000184310BD2DE9FE4F804681EA0300C00F29
:101930000C46009021F0004123F00045B8EB020076
:10194000A94105D24046214690461C460B46024618
:1019500023F00040104347D0270DC7F30A00C3F31C
:101960000A510290401A019040286BDAC3F3130029
:1019700040F4801B0098924620B10023D2EB030A6A
:1019800063EB0B0B01985946C0F14002504600F042
:10199000D7F906460D4650465946019A00F0DFF940
:1019A00010EB08006141002487EA115284EAE773D2
:1019B0001A4340D0009A62B3019A012A4FEA0752B3
:1019C00015DC001B61EB02014FF0004202EA0752F6
:1019D000CDE90042001C41F5801132462B4600F053
:1019E00016FA03B0BDE8F08F40462146F9E7001B28
:1019F00061EB0201001C41F5801300185B412018C7
:101A0000A2F5001747EB030140EAD570B6196D4106
:101A100011E06D084FEA360645EAC0754FEA0752F5
:101A2000001B61EB0201001C41F5801149084FEADF
:101A300030000019514132462B4603B0BDE8F04F4B
:101A400000F0D6B90098012240000023D0EB02023A
:101A500063EBE073009821464FEAE074B8EB0000B6
:101A600061EB0401E9E783F000435BE781F00041AB
:101A700058E72DE9FE4F81EA030404F0004421F009
:101A8000004100944FF0000B23F0004350EA0104A2
:101A90005ED052EA03045BD0C3F30A54C1F30A5583
:101AA0002C44A4F2F3340194A0FB0254C1F31301BB
:101AB00041F48011C3F3130343F4801301FB024488
:101AC00000FB034E840A970A44EA815447EA83578D
:101AD000A4FB076802958D0A05FB07854FEA932C46
:101AE00004FB0C542705029D4FEA065847EA1637B7
:101AF000B5EB08056EEB070C870E920E47EA8117CF
:101B000042EA8312A7FB0201B6EB0B0164EB00046F
:101B10002B0D43EA0C335E1844EB1C50DA46514659
:101B2000E7FB0201C5F313044FEA0B3343EA1453F6
:101B30004FEA0432019C43EA0603A4F10C04029428
:101B4000009CCDE900B400F062F903B0BDE8F08F6D
:101B500000200146F9E72DE9F04D81EA030404F085
:101B6000004B21F0004514464FF0000A23F00041DD
:101B700050EA050220D054EA01021DD0C5F30A57ED
:101B80000246C5F31303C1F31300C1F30A5640F430
:101B9000801543F48013A7EB0608101BD64608F205
:101BA000FD3873EB050002D308F1010801E092183B
:101BB0005B41B8F1000F03DA00200146BDE8F08D6B
:101BC00000204FF48011064684460EE0171B73EB8D
:101BD000050705D3121B63EB050306434CEA010C12
:101BE00049084FEA300092185B4150EA0107EDD1F5
:101BF00052EA030012D082EA040083EA0501084396
:101C000005D0101BAB4106D20122002306E00022C2
:101C10004FF0004302E06FF0010253101AEB060090
:101C20004CEB085110EB0A0041EB0B01BDE8F04D05
:101C300000F0DEB80EB540F2334102910021CDE94B
:101C400000110A460B4600F0E2F803B000BD00F0B8
:101C5000004220F00040C10DC0F3160040F4000027
:101C60007F2901DA00207047962903DCC1F1960133
:101C7000C84001E096398840002AF4D040427047BD
:101C800000F0004230F000400AD0C10D01F5607153
:101C9000C0F3160042EA0151C208400711437047E1
:101CA000002001467047000030B5041E71F10004A9
:101CB00004DB4FF00044404264EB0101141E73F159
:101CC000000405DB1C464FF00043524263EB040363
:101CD0008B4208BF824230BD30B5041E71F1000452
:101CE00004DB4FF00044404264EB0101141E73F129
:101CF000000405DB1C464FF00043524263EB040333
:101D0000994208BF904230BD01F0004330B421F049
:101D1000004150EA010206D00A0DA2F56072C1F33B
:101D20001301002A02DC30BC00207047440F44EA53
:101D3000C104C100E01830BC00EBC25000F021B873
:101D4000202A04DB203A00FA02F10020704791407B
:101D5000C2F1200320FA03F3194390407047202A70
:101D600006DBCB17203A41FA02F043EAE07306E0C3
:101D700041FA02F3D040C2F12002914008431946D3
:101D800070470029A8BF7047401C490008BF20F0D9
:101D90000100704710B4B0FA80FC00FA0CF050EA71
:101DA000010404BF10BC704749B1CCF1200421FAF2
:101DB00004F411FA0CF118BF012121430843A3EBED
:101DC0000C01CB1D4FEA00614FEA102042BF0020FA
:101DD00010BC704700EBC35010440029A4BF10BCD6
:101DE0007047401C490008BF20F0010010BC70473C
:101DF00010B5141E73F1000408DA401C41F1000113
:101E000092185B411A4301D120F0010010BD2DE969
:101E1000F04D92469B4611B1B1FA81F202E0B0FA60
:101E200080F220329046FFF78BFF04460F4640EACF
:101E30000A0041EA0B0153465A46084313D01146A3
:101E400053EA010019D0C8F14002504600F040F8B2
:101E500005460E46504659464246FFF771FF084375
:101E600005D0012004E020463946BDE8F08D002071
:101E7000054346EAE0762C4337430A986305E40AB3
:101E8000A0EB08000022FD0A44EA47540A3002D5BC
:101E900000200146E9E7010510196941DDE908451F
:101EA00000196941BDE8F04DA2E70000064C074D5E
:101EB00006E0E06840F0010394E80700984710341A
:101EC000AC42F6D3FEF716F90420000824200008DF
:101ED000202A04DB203A21FA02F00021704721FA7F
:101EE00002F3D040C2F120029140084319467047E6
:101EF0000FB4054B10B503A9044A029800F017F877
:101F000010BC5DF814FB0000D31300084C00002047
:101F100002E008C8121F08C1002AFAD170477047B2
:101F2000002001E001C1121F002AFBD170472DE9FA
:101F3000F84F9946924688460546002706E0252830
:101F40000AD051464A4690476D1C7F1C28780028CD
:101F5000F5D13846BDE8F88F002315F8011F184663
:101F60002E2915D115F8011F04232A290DD06FF051
:101F70002F022978A1F13004092C09D800EB800048
:101F800002EB400008446D1CF3E758F8040B6D1C8D
:101F90002A78002ADDD0632A07D0732A0FD0104692
:101FA00051464A4690477F1C2AE018F8042B8DF8CA
:101FB000002000218DF801106E46012103E058F841
:101FC000046B4FF0FF315A074FF0000401D409E0D1
:101FD000641C84420BDA8C42FADB325D002AF7D1B2
:101FE00005E0641C8C42FCDB305D0028F9D12744FD
:101FF00004E016F8010B51464A469047641EF8D299
:102000006D1CA3E724200008000000205000000001
:10201000101F000874200008500000200004000079
:10202000201F000800A24A04000000000000000079
:10203000010203040607080900000000010203046E
:102040000102030406070809020406080000000054
:102050000000000000000000000000000000000080
:102060000000000000000000000000000000000070
:04207000000000006C
:04000005080000ED02
:00000001FF
