:10074800202057656C636F6D65202050482020205D
:1007580000446574656374696F6E2073797374659A
:020768006D0022
:0700030005120000000000DF
:0C07DA007FA77EAB7D10DDFEDEFADFF6AF
:0107E60022F0
:1005E50012076AAC10AD11E412031EE4FBFA79A000
:1005F5007840120106E4FBFA7980784312020F8FE6
:100605000F8E0E8D0D8C0C7F4E7E627DBC7CC0AB3B
:100615000FAA0EA90DA80C1201067B7F7A6A79AD87
:1006250078411200158F0B8E0A8D098C08E4FFFEA8
:10063500FDFCAB0BAA0AA909A8081202AC6002507E
:1006450009E4F50BF50AF509F508E4FFFE7D607C84
:1006550041AB0BAA0AA909A8081202AC400BE4F5A4
:0A0665000BF50A75096075084122C3
:10048A00E4FFFE7DC87C42AB0BAA0AA909A80812A0
:10049A000106120357AB07AA067C037DE81203F193
:1004AA00EF2430F5127C037DE8AF03AE021203F1AC
:1004BA007E007F64CFCDCFCECCCE1203F1EF2430B5
:1004CA00F51375142EE4FFFE7DC87C42AB0BAA0A15
:1004DA00A909A808120106120357AB07AA067C004D
:1004EA007D641203F17E007F0ACFCDCFCECCCE122F
:1004FA0003F1EF2430F5157C007D0AAF03AE02123A
:10050A0003F1ED2430F5167B507D01E4FF12077FDD
:10051A007B487D017F0112077F7B3D7D017F0212AF
:10052A00077FAB127D017F0312077FAB137D017F2B
:10053A000412077FAB147D017F0512077FAB157D7F
:0F054A00017F0612077FAB167D017F0702077F37
:10066F00758902758C14E4F58A75A882D28C759001
:10067F003F1206AC7BFF7A077948E4FDFF1206E5CF
:10068F007BFF7A0779597D01E4FF1206E51207DA3D
:0D069F007F011207BA1205E512048A80F8E7
:03000B00020808E0
:03080800B2933276
:10076A00C292D292C2923091FDD290AFB07510006F
:05077A008F11C2902266
:04071E007F057E00D5
:10072200E4F520F5218E208F21D3E5219400E520E8
:10073200940040117FFF7E00120794E5211521707D
:05074200E8152080E431
:01074700228F
:10079400E4FDFCC3ED9FEC9E5008000DBD00010C70
:0207A40080F1E2
:0107A6002230
:1006AC00E4F5A0D2827F05FE1207227F381207BA2A
:1006BC0012071E7F381207BA12071E7F381207BAAC
:1006CC007F381207BA7F081207BA7F011207BA7F68
:0906DC00061207BA7F0C0207BAEE
:0507F400C281C2802259
:0507F900D281C2802244
:0507FE00C281D280223F
:1007BA008F201207E740FB8520A01207F4020803E6
:1007CA008F1F1207E740FB851FA01207FE020803CE
:05080300C282D2822236
:1007A7008F1FED6003431F40431F8012071EAF1FBB
:0307B7000207BA7C
:10077F008F1C8D1D8B1E12071EAD1DAF1C1207A7E0
:05078F00AF1E0207CAC5
:1006E5008F178D188B198A1A891BAB19AA1AA91B82
:1006F5001203D8602312071EAF170517AB19AA1AE4
:10070500A91B1203D8FBAD1812077F7401251BF531
:090715001BE4351AF51A80D2220A
:0D07E70075A0FF1207F9120803E5A03322E8
:10000E000203C3E86480F8E933E83360110460F05A
:10001E00ED33EC337009E8FCE9FDEAFEEBFF220458
:10002E0060DED3EB9FEA9EE99DE8C2E78CF0C2F753
:10003E0095F0400CE8CCF8E9CDF9EACEFAEBCFFB1F
:10004E0012038E85D0F05804700320D5B3E80470E7
:10005E00075002B2D50203CD92D5EC0460F7E4CC82
:10006E00C0E0C398F8603B94186008400DD0E0FBE8
:10007E000203A5E4FBFAC9FC8028E830E406E4C9D3
:10008E00FBE4CAFCE830E305E4C9CACBFCE854073C
:10009E006010F8C3E913F9EA13FAEB13FBEC13FC47
:1000AE00D8F130F52FC3E49CFCEF9BFFEE9AFEEDEA
:1000BE0099FDD0E0FBEF4E4D4C701222DB03020394
:1000CE00CAEC2CFCEF33FFEE33FEED33FDED30E7E3
:1000DE00EB0203A5EF2BFFEE3AFEED39FDD0E0FB70
:1000EE0050130BBB00030203CDED13FDEE13FEEF19
:0800FE0013FFEC13FC0203A543
:10010600EC4D6011E8497017ED33EC3304600DE4F3
:10011600FCFFFEFD22E933E8330470F80203C31244
:10012600038E58046009E4CC248150062850090245
:1001360003CD2840030203CAC0E0EB4A7044B980ED
:1001460006D0E0FB0203B9EF4E701CBD8008EBFF42
:10015600EAFEE9FD80EBE98DF0A4FEE5F00201EF91
:10016600E9CDF9EAFEEBFFEF89F0A4FCE5F0CE89D4
:10017600F0A42EFFE435F0CD89F0A42DFEE435F091
:100186008067EF4E7005BD80D780C3EF8BF0A4ACBF
:10019600F0EE8BF0A42CFCE435F0F8EF8AF0A42CFA
:1001A600E5F038FCE433CB8DF0A42CFCE5F03BF80D
:1001B600EE8AF0A42CFCE5F038F8E433CF89F0A4FD
:1001C6002CFCE5F038CF3400CE89F0A42FFFE5F003
:1001D6003EFEE433C98DF0A42EFEE5F039CD8AF05B
:1001E600A42FFFE5F03EFEE43DFD33D0E0FB5007D3
:1001F6000BBB000F0203CDEC2CFCEF33FFEE33FEFE
:06020600ED33FD0203A52B
:10020C000203CDEC5D046005E8590470030203C3DE
:10021C0012038E580460F6EC4860F2EC7004FDFE9C
:10022C00FF22C860DB2481C85009C39860025006C5
:10023C000203CA9850CAF582E9294B4A7005AB8271
:10024C000203B975F0007C1A7880C3EF9BEE9AED2F
:10025C0099400DC3EF9BFFEE9AFEED99FDE842F03D
:10026C00DC23ACF0D0E0FFD0E0FED0E0FDAB822090
:10027C00E7101BEB60BAEC2CFCEF33FFEE33FEED1A
:10028C0033FD0203A5E803F830E705C0F075F00074
:10029C00EF2FFFEE33FEED33FD40B830E7C280AAFE
:1002AC0074F8CC6480CCC86480C8F582046043C305
:1002BC00EB9FF5F0EA9E42F0E99D42F0E89C45F098
:1002CC0060305018E5825FFFE582F42B5582FB50BD
:1002DC00210ABA001D09B90019088016E5825BFBDA
:1002EC00E582F42F5582FF50090EBE00050DBD00AE
:1002FC00010CC3EB9FF5F0EA9E42F0E99D42F0E859
:0D030C009C45F06007CC4820E701B3EC22CF
:1003190075F020800E75F010800575F0087D007E5F
:10032900007F003392D530D503120427EC334010F7
:10033900EF33FFEE33FEED33FDEC33FCD5F0ED2268
:0E034900E5F0247EA2D513CC92E7CDCEFF22A4
:10035700EDD2E7CD33EC3392D524814006E4FFFE9E
:10036700FDFC22FCE4CFCECDCC24E0501174FF80FD
:10037700EDC3CC13CCCD13CDCE13CECF13CF04709A
:07038700F030D5DE0204276F
:10038E00E9D2E7C933E833F892D5EDD2E7CD33ECB5
:07039E0033FC5002B2D5222E
:1003A500EC30E7100FBF000C0EBE00080DBD0004B9
:1003B5000BEB6014A2D5EB13FCED92E7FD2274FF65
:1003C500FCFDFEFF22E480F8A2D574FF13FC7D80BE
:0303D500E480EFD2
:030000000205599D
:0C055900787FE4F6D8FD7581210205A032
:1003D800BB010689828A83E0225002E722BBFE0223
:0903E800E32289828A83E4932256
:1003F100C2D5EC30E709B2D5E4C39DFDE49CFCEE27
:1004010030E715B2D5E4C39FFFE49EFE120435C365
:10041100E49DFDE49CFC800312043530D507C3E460
:060421009FFFE49EFE2295
:0E042700C3E49FFFE49EFEE49DFDE49CFC22E6
:1005650002066FE493A3F8E493A34003F68001F237
:1005750008DFF48029E493A3F85407240CC8C33397
:10058500C4540F4420C8834004F456800146F6DF66
:10059500E4800B0102040810204080900003E47EF3
:1005A500019360BCA3FF543F30E509541FFEE4935B
:1005B500A360010ECF54C025E060A840B8E493A322
:1005C500FAE493A3F8E493A3C8C582C8CAC583CA4D
:1005D500F0A3C8C582C8CAC583CADFE9DEE780BE05
:01000A0000F5
:10043500BC000BBE0029EF8DF084FFADF022E4CCAB
:10044500F875F008EF2FFFEE33FEEC33FCEE9DEC74
:10045500984005FCEE9DFE0FD5F0E9E4CEFD22EDBA
:10046500F8F5F0EE8420D21CFEADF075F008EF2F04
:10047500FFED33FD4007985006D5F0F222C398FDF5
:050485000FD5F0EA2292
:00000001FF
