:0300000002093AB8
:0C093A00787FE4F6D8FD75812A0209815F
:100AA400202057656C636F6D652E2E2E20200077F5
:100AB40061746572207175616C6974790050483A8B
:050AC400002A002000E3
:100AE900040800000000040C0000000004120000CB
:0F0AF9000000041600000000051A0000000000B5
:100A4100E4F580D2A27F05FE120A7E7F38120B2FB9
:100A5100120A7A7F38120B2F120A7A7F38120B2F63
:100A61007F38120B2F7F08120B2F7F01120B2F7F64
:090A710006120B2F7F0C020B2F63
:050B6B00C2A1C2A0229E
:050B7000D2A1C2A02289
:050B7500C2A1D2A02284
:100B2F008F29120B5E40FB852980120B6B020B7A0B
:100B3F008F28120B5E40FB852880120B75020B7AF3
:050B7A00C2A2D2A2227C
:100B09008F28ED6003432840432880120A7AAF28D2
:030B1900020B2F9D
:050B4F002430FB7D01D4
:0A0B54008B27120B09AF27020B3F9D
:0809C6007BFF7A0A79C57D016F
:1009CE008F1F8D208B218A228923AB21AA22A92356
:1009DE001203CD6023120A7AAF1F051FAB21AA2284
:1009EE00A9231203CDFBAD20120B5474012523F560
:0909FE0023E43522F52280D22207
:0D0B5E007580FF120B70120B7AE5803322B8
:10047F00E4FFFE7DA07C40AB0BAA0AA909A80812D5
:10048F0000FBE4FBFA798078441202048F0B8E0A8A
:10049F008D098C087F4E7E627DBC7CC0AB0BAA0A97
:1004AF00A909A8081200FB7B7F7A6A79AD784112FF
:1004BF00000A8F0F8E0E8D0D8C0CE4FFFEFDFCAB32
:1004CF000FAA0EA90DA80C1202A160025009E4F5A3
:1004DF000FF50EF50DF50CE4FFFE7D607C41AB0FC3
:1004EF00AA0EA90DA80C1202A1600E400C750F9A4E
:1004FF00750E99750D61750C41E4FFFE7DC87C4248
:10050F00AB0FAA0EA90DA80C1200FB12034CAB07E0
:10051F00AA067C037DE81203E6EF2430F51A7C036C
:10052F007DE8AF03AE021203E67E007F64CFCDCF2E
:10053F00CECCCE1203E6EF2430F51B751C2EE4FF54
:10054F00FE7DC87C42AB0FAA0EA90DA80C1200FBB2
:10055F0012034CAB07AA067C007D641203E67E00F3
:10056F007F0ACFCDCFCECCCE1203E6EF2430F51DD0
:10057F007C007D0AAF03AE021203E6ED2430F51EB8
:10058F00AB1AE4FD7F03120B54AB1BE4FD7F041287
:10059F000B54AB1CE4FD7F05120B54AB1DE4FD7F28
:0D05AF0006120B54AB1EE4FD7F07020B5437
:10075900E4FFFE7DC87C42AB15AA14A913A81212A6
:1007690000FB12034CAB07AA067C037DE81203E6E3
:100779008E1F8F207C037DE8AF03AE021203E67E55
:10078900007F64CFCDCFCECCCE1203E68E218F224F
:10079900E4FFFE7DC87C42AB15AA14A913A8121266
:1007A90000FB12034CAB07AA067C007D641203E62A
:1007B9007E007F0ACFCDCFCECCCE1203E68E238F1B
:1007C900247C007D0AAF03AE021203E68C258D2638
:1007D900E5202430FB7D01E4FF120B54E5227F0163
:1007E900120B4F7B2E7D017F02120B54E5247F03F0
:0F07F900120B4FE5262430FB7D017F04020B54C9
:1006A000E4FFFE7DC87C42AB19AA18A917A8161250
:1006B00000FB12034CAB07AA067C037DE81203E69D
:1006C0008E1F8F207C037DE8AF03AE021203E67E0F
:1006D000007F64CFCDCFCECCCE1203E68E218F2209
:1006E000E4FFFE7DC87C42AB19AA18A917A8161210
:1006F00000FB12034CAB07AA067C007D641203E6E4
:100700007E007F0ACFCDCFCECCCE1203E68E238FD4
:10071000247C007D0AAF03AE021203E68C258D26F1
:10072000E5202430FB7D017F07120B54E5222430A5
:10073000FB7D017F08120B547B2E7D017F09120B7C
:1007400054E5242430FB7D017F0A120B54E5262456
:0907500030FB7D017F0B020B540C
:1005BC00120A417BFF7A0A79A4E4FDFF1209CE7B73
:1005CC00FF7A0A79B37D01E4FF1209CE7FF47E0134
:1005DC00120A7E7F01120B2F759D0775BCA0E4F5E6
:1005EC0015F514751380751240F519F5187517105B
:1005FC007516417BFF7A0A79C1FDFF1209CE120AEA
:10060C00C91208081208A41207591206A0E51145D0
:10061C001070127F051209C67BFF7A0A79C77D011B
:10062C007F0C1209CEE5116401451070127BFF7A24
:10063C000A79C77D017F051209CE7F0C1209C67F8E
:10064C0001120A07AC06AD07E41203138F0B8E0AD6
:10065C008D098C087FE87E03120A7E12047FAF1589
:10066C00AE14AD13AC12AB0FAA0EA90DA80C12024E
:10067C00A1601C401AAF19AE18AD17AC16AB0FAA7F
:10068C000EA90DA80C1202A15005D29402060AC2A2
:04069C009402060AB4
:100A0700E4F5BDF5BEE5BC54E044084FF5BC7FFAFC
:100A1700E5BC30E41E53BCEFAEBDEEFD7C007E00AE
:100A27007802C333CE33CED8F9FFE5BE5403FDEFCA
:090A37004DFF22DFDB7E047F008D
:010A40002293
:100AC90020A41C7F647E00120A7E20A4120511E571
:100AD9001170020510640245107004F510F5112219
:1008080030A5030208A37F647E00120A7E30A50388
:100818000208A3E5114510703DAF15AE14AD13AC39
:10082800127B0A7AD77923783C12000A8F158E1426
:100838008D138C127F9A7E997D617C41AB15AA1429
:10084800A913A8121202A1600D400BE4F515F514C6
:10085800751380751240E51164014510703DAF199C
:10086800AE18AD17AC167B0A7AD77923783C1200FC
:100878000A8F198E188D178C167F9A7E997D617C48
:1008880041AB19AA18A917A8161202A1600D400BAE
:0C089800E4F519F51875171075164122CB
:1008A40030A6030209397F647E00120A7E30A60353
:1008B400020939E5114510703AAF15AE14AD13AC09
:1008C400127B0A7AD77923783C1200068F158E148E
:1008D4008D138C12E4FFFEFDFCAB15AA14A913A81A
:1008E400121202A16002500BE4F515F51475138081
:1008F400751240E51164014510703AAF19AE18AD98
:1009040017AC167B0A7AD77923783C1200068F1924
:100914008E188D178C16E4FFFEFDFCAB19AA18A9DE
:1009240017A8161202A16002500BE4F519F5187508
:06093400171075164122A8
:040A7A007F057E0076
:100A7E00E4F529F52A8E298F2AD3E52A9400E52953
:100A8E00940040117FFF7E00120B1CE52A152A7080
:050A9E00E8152980E4C9
:010AA3002230
:100B1C00E4FDFCC3ED9FEC9E5008000DBD00010CE4
:020B2C0080F156
:010B2E0022A4
:100003000203B8E86480F8E933E83360110460F070
:10001300ED33EC337009E8FCE9FDEAFEEBFF220463
:1000230060DED3EB9FEA9EE99DE8C2E78CF0C2F75E
:1000330095F0400CE8CCF8E9CDF9EACEFAEBCFFB2A
:1000430012038385D0F05804700320D5B3E80470FD
:10005300075002B2D50203C292D5EC0460F7E4CC98
:10006300C0E0C398F8603B94186008400DD0E0FBF3
:1000730002039AE4FBFAC9FC8028E830E406E4C9E9
:10008300FBE4CAFCE830E305E4C9CACBFCE8540747
:100093006010F8C3E913F9EA13FAEB13FBEC13FC52
:1000A300D8F130F52FC3E49CFCEF9BFFEE9AFEEDF5
:1000B30099FDD0E0FBEF4E4D4C701222DB0302039F
:1000C300BFEC2CFCEF33FFEE33FEED33FDED30E7F9
:1000D300EB02039AEF2BFFEE3AFEED39FDD0E0FB86
:1000E30050130BBB00030203C2ED13FDEE13FEEF2F
:0800F30013FFEC13FC02039A59
:1000FB00EC4D6011E8497017ED33EC3304600DE4FF
:10010B00FCFFFEFD22E933E8330470F80203B8125A
:10011B00038358046009E4CC24815006285009025B
:10012B0003C22840030203BFC0E0EB4A7044B9800E
:10013B0006D0E0FB0203AEEF4E701CBD8008EBFF58
:10014B00EAFEE9FD80EBE98DF0A4FEE5F00201E4A7
:10015B00E9CDF9EAFEEBFFEF89F0A4FCE5F0CE89DF
:10016B00F0A42EFFE435F0CD89F0A42DFEE435F09C
:10017B008067EF4E7005BD80D780C3EF8BF0A4ACCA
:10018B00F0EE8BF0A42CFCE435F0F8EF8AF0A42C05
:10019B00E5F038FCE433CB8DF0A42CFCE5F03BF818
:1001AB00EE8AF0A42CFCE5F038F8E433CF89F0A408
:1001BB002CFCE5F038CF3400CE89F0A42FFFE5F00E
:1001CB003EFEE433C98DF0A42EFEE5F039CD8AF066
:1001DB00A42FFFE5F03EFEE43DFD33D0E0FB5007DE
:1001EB000BBB000F0203C2EC2CFCEF33FFEE33FE14
:0601FB00ED33FD02039A42
:100201000203C2EC5D046005E8590470030203B8FF
:10021100120383580460F6EC4860F2EC7004FDFEB2
:10022100FF22C860DB2481C85009C39860025006D0
:100231000203BF9850CAF582E9294B4A7005AB8287
:100241000203AE75F0007C1A7880C3EF9BEE9AED45
:1002510099400DC3EF9BFFEE9AFEED99FDE842F048
:10026100DC23ACF0D0E0FFD0E0FED0E0FDAB82209B
:10027100E7101BEB60BAEC2CFCEF33FFEE33FEED25
:1002810033FD02039AE803F830E705C0F075F0008A
:10029100EF2FFFEE33FEED33FD40B830E7C280AA09
:1002A10074F8CC6480CCC86480C8F582046043C310
:1002B100EB9FF5F0EA9E42F0E99D42F0E89C45F0A3
:1002C10060305018E5825FFFE582F42B5582FB50C8
:1002D100210ABA001D09B90019088016E5825BFBE5
:1002E100E582F42F5582FF50090EBE00050DBD00B9
:1002F100010CC3EB9FF5F0EA9E42F0E99D42F0E864
:0D0301009C45F06007CC4820E701B3EC22DA
:10030E0075F020800E75F010800575F0087D007E6A
:10031E00007F003392D530D50312041CEC3340100D
:10032E00EF33FFEE33FEED33FDEC33FCD5F0ED2273
:0E033E00E5F0247EA2D513CC92E7CDCEFF22AF
:10034C00EDD2E7CD33EC3392D524814006E4FFFEA9
:10035C00FDFC22FCE4CFCECDCC24E0501174FF8008
:10036C00EDC3CC13CCCD13CDCE13CECF13CF0470A5
:07037C00F030D5DE02041C85
:10038300E9D2E7C933E833F892D5EDD2E7CD33ECC0
:0703930033FC5002B2D52239
:10039A00EC30E7100FBF000C0EBE00080DBD0004C4
:1003AA000BEB6014A2D5EB13FCED92E7FD2274FF70
:1003BA00FCFDFEFF22E480F8A2D574FF13FC7D80C9
:0303CA00E480EFDD
:100946000205BCE493A3F8E493A34003F68001F206
:1009560008DFF48029E493A3F85407240CC8C333B2
:10096600C4540F4420C8834004F456800146F6DF81
:10097600E4800B0102040810204080900AE9E47E1E
:10098600019360BCA3FF543F30E509541FFEE49376
:10099600A360010ECF54C025E060A840B8E493A33D
:1009A600FAE493A3F8E493A3C8C582C8CAC583CA68
:1009B600F0A3C8C582C8CAC583CADFE9DEE780BE20
:010B080000EC
:1003CD00BB010689828A83E0225002E722BBFE022E
:0903DD00E32289828A83E4932261
:1003E600C2D5EC30E709B2D5E4C39DFDE49CFCEE32
:1003F60030E715B2D5E4C39FFFE49EFE12042AC37C
:10040600E49DFDE49CFC800312042A30D507C3E476
:060416009FFFE49EFE22A0
:0E041C00C3E49FFFE49EFEE49DFDE49CFC22F1
:10042A00BC000BBE0029EF8DF084FFADF022E4CCB6
:10043A00F875F008EF2FFFEE33FEEC33FCEE9DEC7F
:10044A00984005FCEE9DFE0FD5F0E9E4CEFD22EDC5
:10045A00F8F5F0EE8420D21CFEADF075F008EF2F0F
:10046A00FFED33FD4007985006D5F0F222C398FD00
:05047A000FD5F0EA229D
:00000001FF
